{
  "address": "0x58A96e7C32E178Cb4180e8024CdB52d22De69141",
  "abi": [
    {
      "anonymous": false,
      "inputs": [
        {
          "indexed": true,
          "internalType": "address",
          "name": "user",
          "type": "address"
        },
        {
          "indexed": false,
          "internalType": "uint256",
          "name": "airUSDAmount",
          "type": "uint256"
        }
      ],
      "name": "Borrowed",
      "type": "event"
    },
    {
      "anonymous": false,
      "inputs": [
        {
          "indexed": true,
          "internalType": "address",
          "name": "user",
          "type": "address"
        },
        {
          "indexed": true,
          "internalType": "address",
          "name": "token",
          "type": "address"
        },
        {
          "indexed": false,
          "internalType": "uint256",
          "name": "amount",
          "type": "uint256"
        }
      ],
      "name": "Deposit",
      "type": "event"
    },
    {
      "anonymous": false,
      "inputs": [
        {
          "indexed": true,
          "internalType": "address",
          "name": "user",
          "type": "address"
        },
        {
          "indexed": true,
          "internalType": "address",
          "name": "token",
          "type": "address"
        },
        {
          "indexed": false,
          "internalType": "uint256",
          "name": "amount",
          "type": "uint256"
        },
        {
          "indexed": true,
          "internalType": "address",
          "name": "liquidator",
          "type": "address"
        }
      ],
      "name": "Liquidate",
      "type": "event"
    },
    {
      "anonymous": false,
      "inputs": [
        {
          "indexed": true,
          "internalType": "address",
          "name": "previousOwner",
          "type": "address"
        },
        {
          "indexed": true,
          "internalType": "address",
          "name": "newOwner",
          "type": "address"
        }
      ],
      "name": "OwnershipTransferred",
      "type": "event"
    },
    {
      "anonymous": false,
      "inputs": [
        {
          "indexed": true,
          "internalType": "address",
          "name": "user",
          "type": "address"
        },
        {
          "indexed": false,
          "internalType": "uint256",
          "name": "airUSDAmount",
          "type": "uint256"
        }
      ],
      "name": "Repay",
      "type": "event"
    },
    {
      "anonymous": false,
      "inputs": [
        {
          "indexed": true,
          "internalType": "address",
          "name": "user",
          "type": "address"
        },
        {
          "indexed": true,
          "internalType": "address",
          "name": "token",
          "type": "address"
        },
        {
          "indexed": false,
          "internalType": "uint256",
          "name": "amount",
          "type": "uint256"
        }
      ],
      "name": "Withdraw",
      "type": "event"
    },
    {
      "inputs": [],
      "name": "accrue",
      "outputs": [],
      "stateMutability": "nonpayable",
      "type": "function"
    },
    {
      "inputs": [
        {
          "internalType": "address",
          "name": "_token",
          "type": "address"
        },
        {
          "components": [
            {
              "internalType": "uint128",
              "name": "numerator",
              "type": "uint128"
            },
            {
              "internalType": "uint128",
              "name": "denominator",
              "type": "uint128"
            }
          ],
          "internalType": "struct LendingMarket.Rate",
          "name": "_creditLimitRate",
          "type": "tuple"
        },
        {
          "components": [
            {
              "internalType": "uint128",
              "name": "numerator",
              "type": "uint128"
            },
            {
              "internalType": "uint128",
              "name": "denominator",
              "type": "uint128"
            }
          ],
          "internalType": "struct LendingMarket.Rate",
          "name": "_liqLimitRate",
          "type": "tuple"
        }
      ],
      "name": "addCollateralToken",
      "outputs": [],
      "stateMutability": "nonpayable",
      "type": "function"
    },
    {
      "inputs": [],
      "name": "addressProvider",
      "outputs": [
        {
          "internalType": "contract ILendingAddressRegistry",
          "name": "",
          "type": "address"
        }
      ],
      "stateMutability": "view",
      "type": "function"
    },
    {
      "inputs": [],
      "name": "airUSD",
      "outputs": [
        {
          "internalType": "contract IAirUSD",
          "name": "",
          "type": "address"
        }
      ],
      "stateMutability": "view",
      "type": "function"
    },
    {
      "inputs": [],
      "name": "allCollateralTokens",
      "outputs": [
        {
          "internalType": "address[]",
          "name": "",
          "type": "address[]"
        }
      ],
      "stateMutability": "view",
      "type": "function"
    },
    {
      "inputs": [
        {
          "internalType": "address",
          "name": "_token",
          "type": "address"
        },
        {
          "internalType": "uint256",
          "name": "_airUSDAmount",
          "type": "uint256"
        }
      ],
      "name": "borrow",
      "outputs": [],
      "stateMutability": "nonpayable",
      "type": "function"
    },
    {
      "inputs": [
        {
          "internalType": "address",
          "name": "",
          "type": "address"
        }
      ],
      "name": "collateralSettings",
      "outputs": [
        {
          "internalType": "bool",
          "name": "isValid",
          "type": "bool"
        },
        {
          "components": [
            {
              "internalType": "uint128",
              "name": "numerator",
              "type": "uint128"
            },
            {
              "internalType": "uint128",
              "name": "denominator",
              "type": "uint128"
            }
          ],
          "internalType": "struct LendingMarket.Rate",
          "name": "creditLimitRate",
          "type": "tuple"
        },
        {
          "components": [
            {
              "internalType": "uint128",
              "name": "numerator",
              "type": "uint128"
            },
            {
              "internalType": "uint128",
              "name": "denominator",
              "type": "uint128"
            }
          ],
          "internalType": "struct LendingMarket.Rate",
          "name": "liqLimitRate",
          "type": "tuple"
        },
        {
          "internalType": "uint8",
          "name": "decimals",
          "type": "uint8"
        }
      ],
      "stateMutability": "view",
      "type": "function"
    },
    {
      "inputs": [
        {
          "internalType": "uint256",
          "name": "",
          "type": "uint256"
        }
      ],
      "name": "collateralTokens",
      "outputs": [
        {
          "internalType": "address",
          "name": "",
          "type": "address"
        }
      ],
      "stateMutability": "view",
      "type": "function"
    },
    {
      "inputs": [],
      "name": "collectOrgFee",
      "outputs": [],
      "stateMutability": "nonpayable",
      "type": "function"
    },
    {
      "inputs": [
        {
          "internalType": "address",
          "name": "_token",
          "type": "address"
        },
        {
          "internalType": "uint256",
          "name": "_amount",
          "type": "uint256"
        },
        {
          "internalType": "address",
          "name": "_onBehalfOf",
          "type": "address"
        }
      ],
      "name": "deposit",
      "outputs": [],
      "stateMutability": "nonpayable",
      "type": "function"
    },
    {
      "inputs": [
        {
          "internalType": "address",
          "name": "_token",
          "type": "address"
        },
        {
          "internalType": "uint256",
          "name": "_index",
          "type": "uint256"
        }
      ],
      "name": "getUserAt",
      "outputs": [
        {
          "internalType": "address",
          "name": "",
          "type": "address"
        }
      ],
      "stateMutability": "view",
      "type": "function"
    },
    {
      "inputs": [
        {
          "internalType": "address",
          "name": "_token",
          "type": "address"
        }
      ],
      "name": "getUserCount",
      "outputs": [
        {
          "internalType": "uint256",
          "name": "",
          "type": "uint256"
        }
      ],
      "stateMutability": "view",
      "type": "function"
    },
    {
      "inputs": [
        {
          "internalType": "address",
          "name": "_provider",
          "type": "address"
        },
        {
          "internalType": "contract IAirUSD",
          "name": "_airUSD",
          "type": "address"
        },
        {
          "components": [
            {
              "components": [
                {
                  "internalType": "uint128",
                  "name": "numerator",
                  "type": "uint128"
                },
                {
                  "internalType": "uint128",
                  "name": "denominator",
                  "type": "uint128"
                }
              ],
              "internalType": "struct LendingMarket.Rate",
              "name": "interestApr",
              "type": "tuple"
            },
            {
              "components": [
                {
                  "internalType": "uint128",
                  "name": "numerator",
                  "type": "uint128"
                },
                {
                  "internalType": "uint128",
                  "name": "denominator",
                  "type": "uint128"
                }
              ],
              "internalType": "struct LendingMarket.Rate",
              "name": "orgFeeRate",
              "type": "tuple"
            },
            {
              "components": [
                {
                  "internalType": "uint128",
                  "name": "numerator",
                  "type": "uint128"
                },
                {
                  "internalType": "uint128",
                  "name": "denominator",
                  "type": "uint128"
                }
              ],
              "internalType": "struct LendingMarket.Rate",
              "name": "liquidationPenalty",
              "type": "tuple"
            }
          ],
          "internalType": "struct LendingMarket.MarketSettings",
          "name": "_settings",
          "type": "tuple"
        }
      ],
      "name": "initialize",
      "outputs": [],
      "stateMutability": "nonpayable",
      "type": "function"
    },
    {
      "inputs": [
        {
          "internalType": "address",
          "name": "_user",
          "type": "address"
        },
        {
          "internalType": "address",
          "name": "_token",
          "type": "address"
        }
      ],
      "name": "liquidatable",
      "outputs": [
        {
          "internalType": "bool",
          "name": "",
          "type": "bool"
        }
      ],
      "stateMutability": "view",
      "type": "function"
    },
    {
      "inputs": [
        {
          "internalType": "address",
          "name": "_user",
          "type": "address"
        },
        {
          "internalType": "address",
          "name": "_token",
          "type": "address"
        }
      ],
      "name": "liquidate",
      "outputs": [],
      "stateMutability": "nonpayable",
      "type": "function"
    },
    {
      "inputs": [],
      "name": "owner",
      "outputs": [
        {
          "internalType": "address",
          "name": "",
          "type": "address"
        }
      ],
      "stateMutability": "view",
      "type": "function"
    },
    {
      "inputs": [
        {
          "internalType": "address",
          "name": "_user",
          "type": "address"
        },
        {
          "internalType": "address",
          "name": "_token",
          "type": "address"
        }
      ],
      "name": "positionView",
      "outputs": [
        {
          "components": [
            {
              "internalType": "address",
              "name": "owner",
              "type": "address"
            },
            {
              "internalType": "address",
              "name": "token",
              "type": "address"
            },
            {
              "internalType": "uint256",
              "name": "amount",
              "type": "uint256"
            },
            {
              "internalType": "uint256",
              "name": "amountUSD",
              "type": "uint256"
            },
            {
              "internalType": "uint256",
              "name": "creditLimitUSD",
              "type": "uint256"
            },
            {
              "internalType": "uint256",
              "name": "debtPrincipal",
              "type": "uint256"
            },
            {
              "internalType": "uint256",
              "name": "debtInterest",
              "type": "uint256"
            },
            {
              "internalType": "bool",
              "name": "liquidatable",
              "type": "bool"
            }
          ],
          "internalType": "struct ILendingMarket.PositionView",
          "name": "",
          "type": "tuple"
        }
      ],
      "stateMutability": "view",
      "type": "function"
    },
    {
      "inputs": [
        {
          "internalType": "address",
          "name": "_token",
          "type": "address"
        }
      ],
      "name": "removeCollateralToken",
      "outputs": [],
      "stateMutability": "nonpayable",
      "type": "function"
    },
    {
      "inputs": [],
      "name": "renounceOwnership",
      "outputs": [],
      "stateMutability": "nonpayable",
      "type": "function"
    },
    {
      "inputs": [
        {
          "internalType": "address",
          "name": "_token",
          "type": "address"
        },
        {
          "internalType": "uint256",
          "name": "_airUSDAmount",
          "type": "uint256"
        }
      ],
      "name": "repay",
      "outputs": [],
      "stateMutability": "nonpayable",
      "type": "function"
    },
    {
      "inputs": [
        {
          "internalType": "address",
          "name": "_provider",
          "type": "address"
        }
      ],
      "name": "setAddressProvider",
      "outputs": [],
      "stateMutability": "nonpayable",
      "type": "function"
    },
    {
      "inputs": [],
      "name": "settings",
      "outputs": [
        {
          "components": [
            {
              "internalType": "uint128",
              "name": "numerator",
              "type": "uint128"
            },
            {
              "internalType": "uint128",
              "name": "denominator",
              "type": "uint128"
            }
          ],
          "internalType": "struct LendingMarket.Rate",
          "name": "interestApr",
          "type": "tuple"
        },
        {
          "components": [
            {
              "internalType": "uint128",
              "name": "numerator",
              "type": "uint128"
            },
            {
              "internalType": "uint128",
              "name": "denominator",
              "type": "uint128"
            }
          ],
          "internalType": "struct LendingMarket.Rate",
          "name": "orgFeeRate",
          "type": "tuple"
        },
        {
          "components": [
            {
              "internalType": "uint128",
              "name": "numerator",
              "type": "uint128"
            },
            {
              "internalType": "uint128",
              "name": "denominator",
              "type": "uint128"
            }
          ],
          "internalType": "struct LendingMarket.Rate",
          "name": "liquidationPenalty",
          "type": "tuple"
        }
      ],
      "stateMutability": "view",
      "type": "function"
    },
    {
      "inputs": [],
      "name": "totalDebtAccruedAt",
      "outputs": [
        {
          "internalType": "uint256",
          "name": "",
          "type": "uint256"
        }
      ],
      "stateMutability": "view",
      "type": "function"
    },
    {
      "inputs": [],
      "name": "totalDebtAmount",
      "outputs": [
        {
          "internalType": "uint256",
          "name": "",
          "type": "uint256"
        }
      ],
      "stateMutability": "view",
      "type": "function"
    },
    {
      "inputs": [],
      "name": "totalDebtPortion",
      "outputs": [
        {
          "internalType": "uint256",
          "name": "",
          "type": "uint256"
        }
      ],
      "stateMutability": "view",
      "type": "function"
    },
    {
      "inputs": [],
      "name": "totalFeeCollected",
      "outputs": [
        {
          "internalType": "uint256",
          "name": "",
          "type": "uint256"
        }
      ],
      "stateMutability": "view",
      "type": "function"
    },
    {
      "inputs": [
        {
          "internalType": "address",
          "name": "newOwner",
          "type": "address"
        }
      ],
      "name": "transferOwnership",
      "outputs": [],
      "stateMutability": "nonpayable",
      "type": "function"
    },
    {
      "inputs": [
        {
          "internalType": "address",
          "name": "_token",
          "type": "address"
        },
        {
          "internalType": "uint256",
          "name": "_amount",
          "type": "uint256"
        }
      ],
      "name": "withdraw",
      "outputs": [],
      "stateMutability": "nonpayable",
      "type": "function"
    }
  ],
  "transactionHash": "0xcac5312073f128c0e6201b4b91d1b5422fb0b4d2b306aa676f305236bdacd9a7",
  "args": [],
  "numDeployments": 1,
  "solcInputHash": "ba47b2bb7d8b39e6f3391669ef428c08",
  "bytecode": "0x608060405234801561001057600080fd5b506130af806100206000396000f3fe608060405234801561001057600080fd5b50600436106101c45760003560e01c80638da5cb5b116100f9578063e06174e411610097578063f45346dc11610071578063f45346dc146104ee578063f8ba4cff14610501578063faae956414610509578063fd1915d81461051c57600080fd5b8063e06174e414610452578063f2fde38b146104c8578063f3fef3a3146104db57600080fd5b8063a6f7acce116100d3578063a6f7acce146103a9578063b9b2b5cd146103be578063c287aa16146103c7578063c8dffa951461044957600080fd5b80638da5cb5b1461037c57806394f9059f1461038d578063a34efe98146103a057600080fd5b80634b8a3529116101665780637333b679116101405780637333b679146102b55780637b8f93de1461033e57806382df39de1461034657806386b9d81f1461036957600080fd5b80634b8a352914610287578063541f3c3b1461029a578063715018a6146102ad57600080fd5b80631a5fa2e3116101a25780631a5fa2e31461024557806322867d78146102585780632954018c1461026b5780634a3c815c1461027e57600080fd5b806303e8837c146101c95780630dc1bac814610205578063172c48c71461021a575b600080fd5b6101f26101d7366004612945565b6001600160a01b03166000908152609f602052604090205490565b6040519081526020015b60405180910390f35b6102186102133660046129ea565b61052f565b005b61022d610228366004612aa5565b6106a6565b6040516001600160a01b0390911681526020016101fc565b610218610253366004612945565b6106d0565b610218610266366004612abe565b61071c565b60975461022d906001600160a01b031681565b6101f260a25481565b610218610295366004612abe565b610974565b60985461022d906001600160a01b031681565b610218610be8565b61032e6102c3366004612945565b609d6020908152600091825260409182902080548351808501855260018301546001600160801b038082168352600160801b9182900481168387015286518088019097526002850154808216885291909104169385019390935260039091015460ff91821693911684565b6040516101fc9493929190612aea565b610218610c1e565b610359610354366004612b45565b610c91565b60405190151581526020016101fc565b610218610377366004612b45565b610d51565b6033546001600160a01b031661022d565b61021861039b366004612945565b61149a565b6101f260a35481565b6103b161166a565b6040516101fc9190612b7e565b6101f260a45481565b6103da6103d5366004612b45565b6116cc565b6040516101fc919060006101008201905060018060a01b038084511683528060208501511660208401525060408301516040830152606083015160608301526080830151608083015260a083015160a083015260c083015160c083015260e0830151151560e083015292915050565b6101f260a15481565b6040805180820182526099546001600160801b038082168352600160801b91829004811660208085019190915284518086018652609a5480841682528490048316818301528551808701909652609b54808416875293909304909116908401526104b99283565b6040516101fc93929190612bcb565b6102186104d6366004612945565b6118a6565b6102186104e9366004612abe565b611941565b6102186104fc366004612c25565b611af3565b610218611c84565b61022d610517366004612abe565b611cca565b61021861052a366004612c67565b611d10565b600054610100900460ff1661054a5760005460ff161561054e565b303b155b6105b65760405162461bcd60e51b815260206004820152602e60248201527f496e697469616c697a61626c653a20636f6e747261637420697320616c72656160448201526d191e481a5b9a5d1a585b1a5e995960921b60648201526084015b60405180910390fd5b600054610100900460ff161580156105d8576000805461ffff19166101011790555b6105e0611f20565b6105e8611f57565b81516105f390611f86565b6106008260200151611f86565b61060d8260400151611f86565b609780546001600160a01b038087166001600160a01b0319928316179092556098805492861692909116919091179055815180516020918201516001600160801b03908116600160801b90810292821692909217609955828501518051908401518216830290821617609a55604085015180519301518116909102911617609b5580156106a0576000805461ff00191690555b50505050565b609c81815481106106b657600080fd5b6000918252602090912001546001600160a01b0316905081565b6033546001600160a01b031633146106fa5760405162461bcd60e51b81526004016105ad90612cae565b609780546001600160a01b0319166001600160a01b0392909216919091179055565b6002606554141561073f5760405162461bcd60e51b81526004016105ad90612ce3565b60026065556001600160a01b0382166000908152609d602052604090205460ff1661077c5760405162461bcd60e51b81526004016105ad90612d1a565b610784611c84565b600081116107c55760405162461bcd60e51b815260206004820152600e60248201526d1a5b9d985b1a5908185b5bdd5b9d60921b60448201526064016105ad565b336000818152609e602090815260408083206001600160a01b03871684529091528120916107f39085611ff8565b600183015490915060006108078284612d57565b90508285116108165784610818565b825b60985460405163079cc67960e41b8152336004820152602481018390529196506001600160a01b0316906379cc679090604401600060405180830381600087803b15801561086557600080fd5b505af1158015610879573d6000803e3d6000fd5b50505050600081861161088d576000610897565b6108978287612d57565b905060008382146108c25760a1548760a3546108b39190612d6e565b6108bd9190612d8d565b6108c8565b85600201545b90508660a160008282546108dc9190612d57565b925050819055508060a360008282546108f59190612d57565b92505081905550818660010160008282546109109190612d57565b925050819055508086600201600082825461092b9190612d57565b909155505060405187815233907f5c16de4f8b59bd9caf0f49a545f25819a895ed223294290b408242e72a5942319060200160405180910390a250506001606555505050505050565b600260655414156109975760405162461bcd60e51b81526004016105ad90612ce3565b60026065556001600160a01b0382166000908152609d602052604090205460ff166109d45760405162461bcd60e51b81526004016105ad90612d1a565b6109dc611c84565b60006109e83384612094565b905060006109f63385611ff8565b905081610a038483612daf565b1115610a215760405162461bcd60e51b81526004016105ad90612dc7565b609a546000906001600160801b03600160801b8204811691610a44911686612d6e565b610a4e9190612d8d565b90508060a46000828254610a629190612daf565b90915550506098546001600160a01b03166340c10f1933610a838488612d57565b6040516001600160e01b031960e085901b1681526001600160a01b0390921660048301526024820152604401600060405180830381600087803b158015610ac957600080fd5b505af1158015610add573d6000803e3d6000fd5b5050336000908152609e602090815260408083206001600160a01b038b168452909152902060a35490925015159050610b215760a385905560028101859055610b74565b600060a1548660a354610b349190612d6e565b610b3e9190612d8d565b90508060a36000828254610b529190612daf565b9250508190555080826002016000828254610b6d9190612daf565b9091555050505b84816001016000828254610b889190612daf565b925050819055508460a16000828254610ba19190612daf565b909155505060405185815233907fac59582e5396aca512fa873a2047e7f4c80f8f55d4a06cb34a78a0187f62719f9060200160405180910390a25050600160655550505050565b6033546001600160a01b03163314610c125760405162461bcd60e51b81526004016105ad90612cae565b610c1c600061210d565b565b60026065541415610c415760405162461bcd60e51b81526004016105ad90612ce3565b60026065556033546001600160a01b03163314610c705760405162461bcd60e51b81526004016105ad90612cae565b610c78611c84565b610c8560a454600161215f565b600060a4556001606555565b60008060a354600014610cf85760a3546001600160a01b038086166000908152609e6020908152604080832093881683529290522060020154610cd2612392565b60a154610cdf9190612daf565b610ce99190612d6e565b610cf39190612d8d565b610cfb565b60005b6001600160a01b038086166000908152609e60209081526040808320938816835292905290812060010154919250828211610d365782610d38565b815b9050610d4486866123f4565b1115925050505b92915050565b60026065541415610d745760405162461bcd60e51b81526004016105ad90612ce3565b60026065556097546040516335d2155560e11b81523360048201526001600160a01b0390911690636ba42aaa9060240160206040518083038186803b158015610dbc57600080fd5b505afa158015610dd0573d6000803e3d6000fd5b505050506040513d601f19601f82011682018060405250810190610df49190612dfe565b610e2d5760405162461bcd60e51b815260206004820152600a6024820152693737ba1035b2b2b832b960b11b60448201526064016105ad565b6001600160a01b0381166000908152609d602052604090205460ff16610e655760405162461bcd60e51b81526004016105ad90612d1a565b610e6d611c84565b6001600160a01b038083166000908152609e60209081526040808320938516835292905290812090610e9f8484611ff8565b9050610eab84846123f4565b8111610eec5760405162461bcd60e51b815260206004820152601060248201526f6e6f74206c6971756964617461626c6560801b60448201526064016105ad565b60985460405163079cc67960e41b8152336004820152602481018390526001600160a01b03909116906379cc679090604401600060405180830381600087803b158015610f3857600080fd5b505af1158015610f4c573d6000803e3d6000fd5b505050506000609760009054906101000a90046001600160a01b03166001600160a01b0316632ea451be6040518163ffffffff1660e01b815260040160206040518083038186803b158015610fa057600080fd5b505afa158015610fb4573d6000803e3d6000fd5b505050506040513d601f19601f82011682018060405250810190610fd89190612e20565b60405163eb9d14a960e01b81526001600160a01b038681166004830152919091169063eb9d14a99060240160206040518083038186803b15801561101b57600080fd5b505afa15801561102f573d6000803e3d6000fd5b505050506040513d601f19601f820116820180604052508101906110539190612e3d565b609b549091506000906001600160801b03600160801b8204811691611079911685612d6e565b6110839190612d8d565b61108d9084612daf565b6001600160a01b0386166000908152609d6020526040812060030154919250906402540be4009084906110c49060ff16600a612f3a565b6110ce9085612d6e565b6110d89190612d8d565b6110e29190612d8d565b855490915081111561112e5760405162461bcd60e51b81526020600482015260156024820152741b9bdd08195b9bdd59da0818dbdb1b185d195c985b605a1b60448201526064016105ad565b609754604080516343ad12af60e01b815290516000926001600160a01b0316916343ad12af916004808301926020929190829003018186803b15801561117357600080fd5b505afa158015611187573d6000803e3d6000fd5b505050506040513d601f19601f820116820180604052508101906111ab9190612e20565b60405163095ea7b360e01b81526001600160a01b038083166004830152602482018590529192509088169063095ea7b390604401602060405180830381600087803b1580156111f957600080fd5b505af115801561120d573d6000803e3d6000fd5b505050506040513d601f19601f820116820180604052508101906112319190612dfe565b50609854604051631ba0488760e21b81526001600160a01b038981166004830152918216602482015260448101849052306064820152600091831690636e81221c90608401602060405180830381600087803b15801561129057600080fd5b505af11580156112a4573d6000803e3d6000fd5b505050506040513d601f19601f820116820180604052508101906112c89190612e3d565b90508581116113085760405162461bcd60e51b815260206004820152600c60248201526b7a65726f2070656e616c747960a01b60448201526064016105ad565b60006113148783612d57565b6098549091506001600160a01b031663a9059cbb33611334600285612d8d565b61133e908b612daf565b6040516001600160e01b031960e085901b1681526001600160a01b0390921660048301526024820152604401602060405180830381600087803b15801561138457600080fd5b505af1158015611398573d6000803e3d6000fd5b505050506040513d601f19601f820116820180604052508101906113bc9190612dfe565b506113d26113cb600283612d8d565b600061215f565b8754841015611400576114008a858a600001546113ef9190612d57565b6001600160a01b038c169190612463565b8660a160008282546114129190612d57565b9091555050600288015460a3805460009061142e908490612d57565b9091555050600080895560028901819055600189015560405187815233906001600160a01b038b811691908d16907f60b8242c7715592d395c118b86e1c56e483030f45fab92e8694eda9f1a837f5e9060200160405180910390a4505060016065555050505050505050565b6033546001600160a01b031633146114c45760405162461bcd60e51b81526004016105ad90612cae565b6001600160a01b0381166000908152609d602052604090205460ff1661152c5760405162461bcd60e51b815260206004820152601860248201527f696e76616c696420636f6c6c61746572616c20746f6b656e000000000000000060448201526064016105ad565b609c546000905b8082101561158a57826001600160a01b0316609c838154811061155857611558612f49565b6000918252602090912001546001600160a01b031614156115785761158a565b8161158281612f5f565b925050611533565b609c611597600183612d57565b815481106115a7576115a7612f49565b600091825260209091200154609c80546001600160a01b0390921691849081106115d3576115d3612f49565b600091825260209091200180546001600160a01b0319166001600160a01b0392909216919091179055609c611609600183612d57565b8154811061161957611619612f49565b600091825260209091200180546001600160a01b0319169055609c80548061164357611643612f7a565b600082815260209020810160001990810180546001600160a01b0319169055019055505050565b6060609c8054806020026020016040519081016040528092919081815260200182805480156116c257602002820191906000526020600020905b81546001600160a01b031681526001909101906020018083116116a4575b5050505050905090565b61172860405180610100016040528060006001600160a01b0316815260200160006001600160a01b0316815260200160008152602001600081526020016000815260200160008152602001600081526020016000151581525090565b6001600160a01b038084166000908152609e602090815260408083209386168352928152828220835160608101855281548152600182015492810192909252600201549281019290925260a354156117d45760a3546001600160a01b038087166000908152609e60209081526040808320938916835292905220600201546117ae612392565b60a1546117bb9190612daf565b6117c59190612d6e565b6117cf9190612d8d565b6117d7565b60005b6001600160a01b038087166000908152609e602090815260408083209389168352929052908120600101549192508282116118125782611814565b815b9050604051806101000160405280886001600160a01b03168152602001876001600160a01b03168152602001856000015181526020016118588887600001516124cb565b81526020016118678989612094565b8152602001856020015181526020018560200151836118869190612d57565b815260200161189589896123f4565b909210159091529695505050505050565b6033546001600160a01b031633146118d05760405162461bcd60e51b81526004016105ad90612cae565b6001600160a01b0381166119355760405162461bcd60e51b815260206004820152602660248201527f4f776e61626c653a206e6577206f776e657220697320746865207a65726f206160448201526564647265737360d01b60648201526084016105ad565b61193e8161210d565b50565b600260655414156119645760405162461bcd60e51b81526004016105ad90612ce3565b60026065556001600160a01b0382166000908152609d602052604090205460ff166119a15760405162461bcd60e51b81526004016105ad90612d1a565b6119a9611c84565b336000908152609e602090815260408083206001600160a01b0386168452909152902080548211156119ed5760405162461bcd60e51b81526004016105ad90612dc7565b6001600160a01b0383166000908152609d602052604081206001015482546001600160801b03600160801b83048116921690611a35908790611a30908890612d57565b6124cb565b611a3f9190612d6e565b611a499190612d8d565b90506000611a573386611ff8565b905081811115611a795760405162461bcd60e51b81526004016105ad90612dc7565b83836000016000828254611a8d9190612d57565b90915550611aa790506001600160a01b0386163386612463565b6040518481526001600160a01b0386169033907f9b1bfa7fa9ee420a16e124f794c35ac9f90472acc99140eb2f6447c714cad8eb9060200160405180910390a350506001606555505050565b60026065541415611b165760405162461bcd60e51b81526004016105ad90612ce3565b60026065556001600160a01b0383166000908152609d602052604090205460ff16611b535760405162461bcd60e51b81526004016105ad90612d1a565b611b686001600160a01b038416333085612627565b6001600160a01b038082166000908152609e6020908152604080832093871683529290529081208054849290611b9f908490612daf565b90915550506001600160a01b03808216600090815260a0602090815260408083209387168352929052205460ff16611c2d576001600160a01b03808216600081815260a0602090815260408083209488168352938152838220805460ff19166001908117909155609f8252938220805494850181558252902090910180546001600160a01b03191690911790555b826001600160a01b0316816001600160a01b03167f5548c837ab068cf56a2c2479df0882a4922fd203edb7517321831d95078c5f6284604051611c7291815260200190565b60405180910390a35050600160655550565b6000611c8e612392565b90504260a2819055508060a16000828254611ca99190612daf565b925050819055508060a46000828254611cc29190612daf565b909155505050565b6001600160a01b0382166000908152609f60205260408120805483908110611cf457611cf4612f49565b6000918252602090912001546001600160a01b03169392505050565b6033546001600160a01b03163314611d3a5760405162461bcd60e51b81526004016105ad90612cae565b611d4382611f86565b611d4c81611f86565b6001600160a01b0383166000908152609d602052604090205460ff1615611db55760405162461bcd60e51b815260206004820152601760248201527f636f6c6c61746572616c20746f6b656e2065786973747300000000000000000060448201526064016105ad565b6040518060800160405280600115158152602001838152602001828152602001846001600160a01b031663313ce5676040518163ffffffff1660e01b815260040160206040518083038186803b158015611e0e57600080fd5b505afa158015611e22573d6000803e3d6000fd5b505050506040513d601f19601f82011682018060405250810190611e469190612f90565b60ff9081169091526001600160a01b039094166000818152609d602090815260408083208551815490151560ff19918216178255868401518051908501516001600160801b03908116600160801b908102928216929092176001808601919091559489015180519601518116909102941693909317600282015560609095015160039095018054959098169490911693909317909555609c805492830181559094527faf85b9071dfafeac1409d3f1d19bafc9bc7c37974cde8df0ee6168f0086e539c0180546001600160a01b0319169093179092555050565b600054610100900460ff16611f475760405162461bcd60e51b81526004016105ad90612fb3565b611f4f61265f565b610c1c612686565b600054610100900460ff16611f7e5760405162461bcd60e51b81526004016105ad90612fb3565b610c1c6126b6565b600081602001516001600160801b0316118015611fbd575080600001516001600160801b031681602001516001600160801b031610155b61193e5760405162461bcd60e51b815260206004820152600c60248201526b696e76616c6964207261746560a01b60448201526064016105ad565b60008060a35460001461204d5760a3546001600160a01b038086166000908152609e602090815260408083209388168352929052206002015460a15461203e9190612d6e565b6120489190612d8d565b612050565b60005b6001600160a01b038086166000908152609e6020908152604080832093881683529290522060010154909150818111612089578161208b565b805b95945050505050565b6001600160a01b038083166000908152609e60209081526040808320938516835292905290812054816120c784836124cb565b6001600160a01b0385166000908152609d60205260409020600101549091506001600160801b03600160801b8204811691612103911683612d6e565b61208b9190612d8d565b603380546001600160a01b038381166001600160a01b0319831681179093556040519116919082907f8be0079c531659141344cd1fd0a4f28419497f9722a3daafe3b4186f6b6457e090600090a35050565b60975460408051631d8cf42560e11b815290516000926001600160a01b031691633b19e84a916004808301926020929190829003018186803b1580156121a457600080fd5b505afa1580156121b8573d6000803e3d6000fd5b505050506040513d601f19601f820116820180604052508101906121dc9190612e20565b905060006121eb600585612d8d565b90506000609760009054906101000a90046001600160a01b03166001600160a01b0316637b1391a66040518163ffffffff1660e01b815260040160206040518083038186803b15801561223d57600080fd5b505afa158015612251573d6000803e3d6000fd5b505050506040513d601f19601f820116820180604052508101906122759190612e20565b905060006122838387612d57565b9050841561235c576098546040516340c10f1960e01b81526001600160a01b03868116600483015260248201869052909116906340c10f1990604401600060405180830381600087803b1580156122d957600080fd5b505af11580156122ed573d6000803e3d6000fd5b50506098546040516340c10f1960e01b81526001600160a01b0386811660048301526024820186905290911692506340c10f199150604401600060405180830381600087803b15801561233f57600080fd5b505af1158015612353573d6000803e3d6000fd5b5050505061238a565b609854612373906001600160a01b03168585612463565b60985461238a906001600160a01b03168383612463565b505050505050565b60008060a254426123a39190612d57565b60995460a1549192506301e13380916001600160801b03600160801b830481169216906123d09085612d6e565b6123da9190612d6e565b6123e49190612d8d565b6123ee9190612d8d565b91505090565b6001600160a01b038083166000908152609e602090815260408083209385168352929052908120548161242784836124cb565b6001600160a01b0385166000908152609d60205260409020600201549091506001600160801b03600160801b8204811691612103911683612d6e565b6040516001600160a01b0383166024820152604481018290526124c690849063a9059cbb60e01b906064015b60408051601f198184030181529190526020810180516001600160e01b03166001600160e01b0319909316929092179091526126e4565b505050565b600080609760009054906101000a90046001600160a01b03166001600160a01b0316632ea451be6040518163ffffffff1660e01b815260040160206040518083038186803b15801561251c57600080fd5b505afa158015612530573d6000803e3d6000fd5b505050506040513d601f19601f820116820180604052508101906125549190612e20565b60405163eb9d14a960e01b81526001600160a01b038681166004830152919091169063eb9d14a99060240160206040518083038186803b15801561259757600080fd5b505afa1580156125ab573d6000803e3d6000fd5b505050506040513d601f19601f820116820180604052508101906125cf9190612e3d565b6001600160a01b0385166000908152609d60205260409020600301549091506125fc9060ff16600a612f3a565b6126068285612d6e565b612615906402540be400612d6e565b61261f9190612d8d565b949350505050565b6040516001600160a01b03808516602483015283166044820152606481018290526106a09085906323b872dd60e01b9060840161248f565b600054610100900460ff16610c1c5760405162461bcd60e51b81526004016105ad90612fb3565b600054610100900460ff166126ad5760405162461bcd60e51b81526004016105ad90612fb3565b610c1c3361210d565b600054610100900460ff166126dd5760405162461bcd60e51b81526004016105ad90612fb3565b6001606555565b6000612739826040518060400160405280602081526020017f5361666545524332303a206c6f772d6c6576656c2063616c6c206661696c6564815250856001600160a01b03166127b69092919063ffffffff16565b8051909150156124c657808060200190518101906127579190612dfe565b6124c65760405162461bcd60e51b815260206004820152602a60248201527f5361666545524332303a204552433230206f7065726174696f6e20646964206e6044820152691bdd081cdd58d8d9595960b21b60648201526084016105ad565b60606127c584846000856127cf565b90505b9392505050565b6060824710156128305760405162461bcd60e51b815260206004820152602660248201527f416464726573733a20696e73756666696369656e742062616c616e636520666f6044820152651c8818d85b1b60d21b60648201526084016105ad565b843b61287e5760405162461bcd60e51b815260206004820152601d60248201527f416464726573733a2063616c6c20746f206e6f6e2d636f6e747261637400000060448201526064016105ad565b600080866001600160a01b0316858760405161289a919061302a565b60006040518083038185875af1925050503d80600081146128d7576040519150601f19603f3d011682016040523d82523d6000602084013e6128dc565b606091505b50915091506128ec8282866128f7565b979650505050505050565b606083156129065750816127c8565b8251156129165782518084602001fd5b8160405162461bcd60e51b81526004016105ad9190613046565b6001600160a01b038116811461193e57600080fd5b60006020828403121561295757600080fd5b81356127c881612930565b80356001600160801b038116811461297957600080fd5b919050565b60006040828403121561299057600080fd5b6040516040810181811067ffffffffffffffff821117156129c157634e487b7160e01b600052604160045260246000fd5b6040529050806129d083612962565b81526129de60208401612962565b60208201525092915050565b6000806000838503610100811215612a0157600080fd5b8435612a0c81612930565b93506020850135612a1c81612930565b925060c0603f1982011215612a3057600080fd5b506040516060810181811067ffffffffffffffff82111715612a6257634e487b7160e01b600052604160045260246000fd5b8060405250612a74866040870161297e565b8152612a83866080870161297e565b6020820152612a958660c0870161297e565b6040820152809150509250925092565b600060208284031215612ab757600080fd5b5035919050565b60008060408385031215612ad157600080fd5b8235612adc81612930565b946020939093013593505050565b841515815260c08101612b16602083018680516001600160801b03908116835260209182015116910152565b83516001600160801b039081166060840152602085015116608083015260ff831660a083015295945050505050565b60008060408385031215612b5857600080fd5b8235612b6381612930565b91506020830135612b7381612930565b809150509250929050565b6020808252825182820181905260009190848201906040850190845b81811015612bbf5783516001600160a01b031683529284019291840191600101612b9a565b50909695505050505050565b60c08101612bef828680516001600160801b03908116835260209182015116910152565b83516001600160801b039081166040840152602080860151821660608501528451821660808501528401511660a083015261261f565b600080600060608486031215612c3a57600080fd5b8335612c4581612930565b9250602084013591506040840135612c5c81612930565b809150509250925092565b600080600060a08486031215612c7c57600080fd5b8335612c8781612930565b9250612c96856020860161297e565b9150612ca5856060860161297e565b90509250925092565b6020808252818101527f4f776e61626c653a2063616c6c6572206973206e6f7420746865206f776e6572604082015260600190565b6020808252601f908201527f5265656e7472616e637947756172643a207265656e7472616e742063616c6c00604082015260600190565b6020808252600d908201526c34b73b30b634b2103a37b5b2b760991b604082015260600190565b634e487b7160e01b600052601160045260246000fd5b600082821015612d6957612d69612d41565b500390565b6000816000190483118215151615612d8857612d88612d41565b500290565b600082612daa57634e487b7160e01b600052601260045260246000fd5b500490565b60008219821115612dc257612dc2612d41565b500190565b60208082526017908201527f696e73756666696369656e7420636f6c6c61746572616c000000000000000000604082015260600190565b600060208284031215612e1057600080fd5b815180151581146127c857600080fd5b600060208284031215612e3257600080fd5b81516127c881612930565b600060208284031215612e4f57600080fd5b5051919050565b600181815b80851115612e91578160001904821115612e7757612e77612d41565b80851615612e8457918102915b93841c9390800290612e5b565b509250929050565b600082612ea857506001610d4b565b81612eb557506000610d4b565b8160018114612ecb5760028114612ed557612ef1565b6001915050610d4b565b60ff841115612ee657612ee6612d41565b50506001821b610d4b565b5060208310610133831016604e8410600b8410161715612f14575081810a610d4b565b612f1e8383612e56565b8060001904821115612f3257612f32612d41565b029392505050565b60006127c860ff841683612e99565b634e487b7160e01b600052603260045260246000fd5b6000600019821415612f7357612f73612d41565b5060010190565b634e487b7160e01b600052603160045260246000fd5b600060208284031215612fa257600080fd5b815160ff811681146127c857600080fd5b6020808252602b908201527f496e697469616c697a61626c653a20636f6e7472616374206973206e6f74206960408201526a6e697469616c697a696e6760a81b606082015260800190565b60005b83811015613019578181015183820152602001613001565b838111156106a05750506000910152565b6000825161303c818460208701612ffe565b9190910192915050565b6020815260008251806020840152613065816040850160208701612ffe565b601f01601f1916919091016040019291505056fea2646970667358221220f45bb3797bba1c95ffee87d5aa9a87df573164b2e41e2a03a770dd05b3f2868964736f6c63430008090033",
  "devdoc": {
    "details": "If the user's health factor is below 1, anyone can liquidate his/her position. Protocol will charge debt interest from borrowers and protocol revenue from liquidation.",
    "kind": "dev",
    "methods": {
      "accrue()": {
        "details": "Updates the contract's state by calculating the additional interest accrued since the last time"
      },
      "addCollateralToken(address,(uint128,uint128),(uint128,uint128))": {
        "details": "only owner can call this function",
        "params": {
          "_creditLimitRate": "borrow limit",
          "_liqLimitRate": "liquidation threshold rate",
          "_token": "collateral token address"
        }
      },
      "allCollateralTokens()": {
        "returns": {
          "_0": "The collateral tokens in array format"
        }
      },
      "borrow(address,uint256)": {
        "details": "user can call this function after depositing his/her collateral",
        "params": {
          "_airUSDAmount": "AirUSD amount to borrow",
          "_token": "collateral token address"
        }
      },
      "collectOrgFee()": {
        "details": "only owner can call this function"
      },
      "deposit(address,uint256,address)": {
        "details": "user can call this function after approving his/her collateral amount",
        "params": {
          "_amount": "collateral amount to deposit",
          "_onBehalfOf": "deposit collateral for",
          "_token": "collateral token address"
        }
      },
      "initialize(address,address,((uint128,uint128),(uint128,uint128),(uint128,uint128)))": {
        "params": {
          "_airUSD": "AirUSD token address",
          "_provider": "address provider",
          "_settings": "lending market settings"
        }
      },
      "owner()": {
        "details": "Returns the address of the current owner."
      },
      "positionView(address,address)": {
        "returns": {
          "_0": "position this includes a user's collateral, debt, liquidation data."
        }
      },
      "removeCollateralToken(address)": {
        "details": "only owner can call this function",
        "params": {
          "_token": "collateral token address"
        }
      },
      "renounceOwnership()": {
        "details": "Leaves the contract without owner. It will not be possible to call `onlyOwner` functions anymore. Can only be called by the current owner. NOTE: Renouncing ownership will leave the contract without an owner, thereby removing any functionality that is only available to the owner."
      },
      "repay(address,uint256)": {
        "details": "user can call this function after approving his/her AirUSD amount to repay",
        "params": {
          "_airUSDAmount": "AirUSD amount to repay",
          "_token": "collateral token address"
        }
      },
      "setAddressProvider(address)": {
        "params": {
          "_provider": "new address provider"
        }
      },
      "transferOwnership(address)": {
        "details": "Transfers ownership of the contract to a new account (`newOwner`). Can only be called by the current owner."
      },
      "withdraw(address,uint256)": {
        "details": "user can call this function after depositing his/her collateral",
        "params": {
          "_amount": "collateral amount to withdraw",
          "_token": "collateral token address"
        }
      }
    },
    "title": "LendingMarket",
    "version": 1
  },
  "userdoc": {
    "events": {
      "Borrowed(address,uint256)": {
        "notice": "An event thats emitted when user borrows AirUSD"
      },
      "Deposit(address,address,uint256)": {
        "notice": "An event thats emitted when user deposits collateral"
      },
      "Liquidate(address,address,uint256,address)": {
        "notice": "An event thats emitted when liquidator liquidates a user's position"
      },
      "Repay(address,uint256)": {
        "notice": "An event thats emitted when user repays AirUSD"
      },
      "Withdraw(address,address,uint256)": {
        "notice": "An event thats emitted when user withdraws collateral"
      }
    },
    "kind": "user",
    "methods": {
      "accrue()": {
        "notice": "accrue debt interest"
      },
      "addCollateralToken(address,(uint128,uint128),(uint128,uint128))": {
        "notice": "add a new collateral token"
      },
      "addressProvider()": {
        "notice": "address provider"
      },
      "airUSD()": {
        "notice": "AirUSD token address"
      },
      "allCollateralTokens()": {
        "notice": "returns all collateral tokens in array format"
      },
      "borrow(address,uint256)": {
        "notice": "borrow AirUSD"
      },
      "collateralSettings(address)": {
        "notice": "collateral settings"
      },
      "collateralTokens(uint256)": {
        "notice": "collateral tokens in array"
      },
      "collectOrgFee()": {
        "notice": "collect protocol fees accrued so far"
      },
      "deposit(address,uint256,address)": {
        "notice": "deposit collateral"
      },
      "initialize(address,address,((uint128,uint128),(uint128,uint128),(uint128,uint128)))": {
        "notice": "Initializer."
      },
      "positionView(address,address)": {
        "notice": "returns a user's collateral position"
      },
      "removeCollateralToken(address)": {
        "notice": "remove an existing collateral token"
      },
      "repay(address,uint256)": {
        "notice": "repay position with AirUSD"
      },
      "setAddressProvider(address)": {
        "notice": "set new address provider"
      },
      "settings()": {
        "notice": "lending market settings"
      },
      "totalDebtAccruedAt()": {
        "notice": "last time of debt accrued"
      },
      "totalDebtAmount()": {
        "notice": "total borrowed amount accrued so far"
      },
      "totalDebtPortion()": {
        "notice": "total borrowed portion"
      },
      "totalFeeCollected()": {
        "notice": "total protocol fees accrued so far"
      },
      "withdraw(address,uint256)": {
        "notice": "withdraw collateral"
      }
    },
    "notice": "Lending pools where users can deposit/withdraw collateral and borrow AirUSD.",
    "version": 1
  },
  "storageLayout": {
    "storage": [
      {
        "astId": 190,
        "contract": "contracts/LendingMarket.sol:LendingMarket",
        "label": "_initialized",
        "offset": 0,
        "slot": "0",
        "type": "t_bool"
      },
      {
        "astId": 193,
        "contract": "contracts/LendingMarket.sol:LendingMarket",
        "label": "_initializing",
        "offset": 1,
        "slot": "0",
        "type": "t_bool"
      },
      {
        "astId": 930,
        "contract": "contracts/LendingMarket.sol:LendingMarket",
        "label": "__gap",
        "offset": 0,
        "slot": "1",
        "type": "t_array(t_uint256)50_storage"
      },
      {
        "astId": 68,
        "contract": "contracts/LendingMarket.sol:LendingMarket",
        "label": "_owner",
        "offset": 0,
        "slot": "51",
        "type": "t_address"
      },
      {
        "astId": 182,
        "contract": "contracts/LendingMarket.sol:LendingMarket",
        "label": "__gap",
        "offset": 0,
        "slot": "52",
        "type": "t_array(t_uint256)49_storage"
      },
      {
        "astId": 271,
        "contract": "contracts/LendingMarket.sol:LendingMarket",
        "label": "_status",
        "offset": 0,
        "slot": "101",
        "type": "t_uint256"
      },
      {
        "astId": 314,
        "contract": "contracts/LendingMarket.sol:LendingMarket",
        "label": "__gap",
        "offset": 0,
        "slot": "102",
        "type": "t_array(t_uint256)49_storage"
      },
      {
        "astId": 5081,
        "contract": "contracts/LendingMarket.sol:LendingMarket",
        "label": "addressProvider",
        "offset": 0,
        "slot": "151",
        "type": "t_contract(ILendingAddressRegistry)11630"
      },
      {
        "astId": 5085,
        "contract": "contracts/LendingMarket.sol:LendingMarket",
        "label": "airUSD",
        "offset": 0,
        "slot": "152",
        "type": "t_contract(IAirUSD)11490"
      },
      {
        "astId": 5089,
        "contract": "contracts/LendingMarket.sol:LendingMarket",
        "label": "settings",
        "offset": 0,
        "slot": "153",
        "type": "t_struct(MarketSettings)5016_storage"
      },
      {
        "astId": 5093,
        "contract": "contracts/LendingMarket.sol:LendingMarket",
        "label": "collateralTokens",
        "offset": 0,
        "slot": "156",
        "type": "t_array(t_address)dyn_storage"
      },
      {
        "astId": 5099,
        "contract": "contracts/LendingMarket.sol:LendingMarket",
        "label": "collateralSettings",
        "offset": 0,
        "slot": "157",
        "type": "t_mapping(t_address,t_struct(CollateralSetting)5027_storage)"
      },
      {
        "astId": 5107,
        "contract": "contracts/LendingMarket.sol:LendingMarket",
        "label": "userPositions",
        "offset": 0,
        "slot": "158",
        "type": "t_mapping(t_address,t_mapping(t_address,t_struct(Position)5034_storage))"
      },
      {
        "astId": 5113,
        "contract": "contracts/LendingMarket.sol:LendingMarket",
        "label": "marketUsers",
        "offset": 0,
        "slot": "159",
        "type": "t_mapping(t_address,t_array(t_address)dyn_storage)"
      },
      {
        "astId": 5120,
        "contract": "contracts/LendingMarket.sol:LendingMarket",
        "label": "isMarketUser",
        "offset": 0,
        "slot": "160",
        "type": "t_mapping(t_address,t_mapping(t_address,t_bool))"
      },
      {
        "astId": 5123,
        "contract": "contracts/LendingMarket.sol:LendingMarket",
        "label": "totalDebtAmount",
        "offset": 0,
        "slot": "161",
        "type": "t_uint256"
      },
      {
        "astId": 5126,
        "contract": "contracts/LendingMarket.sol:LendingMarket",
        "label": "totalDebtAccruedAt",
        "offset": 0,
        "slot": "162",
        "type": "t_uint256"
      },
      {
        "astId": 5129,
        "contract": "contracts/LendingMarket.sol:LendingMarket",
        "label": "totalDebtPortion",
        "offset": 0,
        "slot": "163",
        "type": "t_uint256"
      },
      {
        "astId": 5132,
        "contract": "contracts/LendingMarket.sol:LendingMarket",
        "label": "totalFeeCollected",
        "offset": 0,
        "slot": "164",
        "type": "t_uint256"
      }
    ],
    "types": {
      "t_address": {
        "encoding": "inplace",
        "label": "address",
        "numberOfBytes": "20"
      },
      "t_array(t_address)dyn_storage": {
        "base": "t_address",
        "encoding": "dynamic_array",
        "label": "address[]",
        "numberOfBytes": "32"
      },
      "t_array(t_uint256)49_storage": {
        "base": "t_uint256",
        "encoding": "inplace",
        "label": "uint256[49]",
        "numberOfBytes": "1568"
      },
      "t_array(t_uint256)50_storage": {
        "base": "t_uint256",
        "encoding": "inplace",
        "label": "uint256[50]",
        "numberOfBytes": "1600"
      },
      "t_bool": {
        "encoding": "inplace",
        "label": "bool",
        "numberOfBytes": "1"
      },
      "t_contract(IAirUSD)11490": {
        "encoding": "inplace",
        "label": "contract IAirUSD",
        "numberOfBytes": "20"
      },
      "t_contract(ILendingAddressRegistry)11630": {
        "encoding": "inplace",
        "label": "contract ILendingAddressRegistry",
        "numberOfBytes": "20"
      },
      "t_mapping(t_address,t_array(t_address)dyn_storage)": {
        "encoding": "mapping",
        "key": "t_address",
        "label": "mapping(address => address[])",
        "numberOfBytes": "32",
        "value": "t_array(t_address)dyn_storage"
      },
      "t_mapping(t_address,t_bool)": {
        "encoding": "mapping",
        "key": "t_address",
        "label": "mapping(address => bool)",
        "numberOfBytes": "32",
        "value": "t_bool"
      },
      "t_mapping(t_address,t_mapping(t_address,t_bool))": {
        "encoding": "mapping",
        "key": "t_address",
        "label": "mapping(address => mapping(address => bool))",
        "numberOfBytes": "32",
        "value": "t_mapping(t_address,t_bool)"
      },
      "t_mapping(t_address,t_mapping(t_address,t_struct(Position)5034_storage))": {
        "encoding": "mapping",
        "key": "t_address",
        "label": "mapping(address => mapping(address => struct LendingMarket.Position))",
        "numberOfBytes": "32",
        "value": "t_mapping(t_address,t_struct(Position)5034_storage)"
      },
      "t_mapping(t_address,t_struct(CollateralSetting)5027_storage)": {
        "encoding": "mapping",
        "key": "t_address",
        "label": "mapping(address => struct LendingMarket.CollateralSetting)",
        "numberOfBytes": "32",
        "value": "t_struct(CollateralSetting)5027_storage"
      },
      "t_mapping(t_address,t_struct(Position)5034_storage)": {
        "encoding": "mapping",
        "key": "t_address",
        "label": "mapping(address => struct LendingMarket.Position)",
        "numberOfBytes": "32",
        "value": "t_struct(Position)5034_storage"
      },
      "t_struct(CollateralSetting)5027_storage": {
        "encoding": "inplace",
        "label": "struct LendingMarket.CollateralSetting",
        "members": [
          {
            "astId": 5018,
            "contract": "contracts/LendingMarket.sol:LendingMarket",
            "label": "isValid",
            "offset": 0,
            "slot": "0",
            "type": "t_bool"
          },
          {
            "astId": 5021,
            "contract": "contracts/LendingMarket.sol:LendingMarket",
            "label": "creditLimitRate",
            "offset": 0,
            "slot": "1",
            "type": "t_struct(Rate)5006_storage"
          },
          {
            "astId": 5024,
            "contract": "contracts/LendingMarket.sol:LendingMarket",
            "label": "liqLimitRate",
            "offset": 0,
            "slot": "2",
            "type": "t_struct(Rate)5006_storage"
          },
          {
            "astId": 5026,
            "contract": "contracts/LendingMarket.sol:LendingMarket",
            "label": "decimals",
            "offset": 0,
            "slot": "3",
            "type": "t_uint8"
          }
        ],
        "numberOfBytes": "128"
      },
      "t_struct(MarketSettings)5016_storage": {
        "encoding": "inplace",
        "label": "struct LendingMarket.MarketSettings",
        "members": [
          {
            "astId": 5009,
            "contract": "contracts/LendingMarket.sol:LendingMarket",
            "label": "interestApr",
            "offset": 0,
            "slot": "0",
            "type": "t_struct(Rate)5006_storage"
          },
          {
            "astId": 5012,
            "contract": "contracts/LendingMarket.sol:LendingMarket",
            "label": "orgFeeRate",
            "offset": 0,
            "slot": "1",
            "type": "t_struct(Rate)5006_storage"
          },
          {
            "astId": 5015,
            "contract": "contracts/LendingMarket.sol:LendingMarket",
            "label": "liquidationPenalty",
            "offset": 0,
            "slot": "2",
            "type": "t_struct(Rate)5006_storage"
          }
        ],
        "numberOfBytes": "96"
      },
      "t_struct(Position)5034_storage": {
        "encoding": "inplace",
        "label": "struct LendingMarket.Position",
        "members": [
          {
            "astId": 5029,
            "contract": "contracts/LendingMarket.sol:LendingMarket",
            "label": "amount",
            "offset": 0,
            "slot": "0",
            "type": "t_uint256"
          },
          {
            "astId": 5031,
            "contract": "contracts/LendingMarket.sol:LendingMarket",
            "label": "debtPrincipal",
            "offset": 0,
            "slot": "1",
            "type": "t_uint256"
          },
          {
            "astId": 5033,
            "contract": "contracts/LendingMarket.sol:LendingMarket",
            "label": "debtPortion",
            "offset": 0,
            "slot": "2",
            "type": "t_uint256"
          }
        ],
        "numberOfBytes": "96"
      },
      "t_struct(Rate)5006_storage": {
        "encoding": "inplace",
        "label": "struct LendingMarket.Rate",
        "members": [
          {
            "astId": 5003,
            "contract": "contracts/LendingMarket.sol:LendingMarket",
            "label": "numerator",
            "offset": 0,
            "slot": "0",
            "type": "t_uint128"
          },
          {
            "astId": 5005,
            "contract": "contracts/LendingMarket.sol:LendingMarket",
            "label": "denominator",
            "offset": 16,
            "slot": "0",
            "type": "t_uint128"
          }
        ],
        "numberOfBytes": "32"
      },
      "t_uint128": {
        "encoding": "inplace",
        "label": "uint128",
        "numberOfBytes": "16"
      },
      "t_uint256": {
        "encoding": "inplace",
        "label": "uint256",
        "numberOfBytes": "32"
      },
      "t_uint8": {
        "encoding": "inplace",
        "label": "uint8",
        "numberOfBytes": "1"
      }
    }
  }
}