{
  "address": "0xd324e6BF16BF466ec2537Ae232831f969fd1102F",
  "abi": [
    {
      "inputs": [],
      "stateMutability": "nonpayable",
      "type": "constructor"
    },
    {
      "anonymous": false,
      "inputs": [
        {
          "indexed": true,
          "internalType": "address",
          "name": "previousOwner",
          "type": "address"
        },
        {
          "indexed": true,
          "internalType": "address",
          "name": "newOwner",
          "type": "address"
        }
      ],
      "name": "OwnershipTransferred",
      "type": "event"
    },
    {
      "inputs": [],
      "name": "LENDING_MARKET",
      "outputs": [
        {
          "internalType": "bytes32",
          "name": "",
          "type": "bytes32"
        }
      ],
      "stateMutability": "view",
      "type": "function"
    },
    {
      "inputs": [],
      "name": "PRICE_ORACLE_AGGREGATOR",
      "outputs": [
        {
          "internalType": "bytes32",
          "name": "",
          "type": "bytes32"
        }
      ],
      "stateMutability": "view",
      "type": "function"
    },
    {
      "inputs": [],
      "name": "STABLE_POOL",
      "outputs": [
        {
          "internalType": "bytes32",
          "name": "",
          "type": "bytes32"
        }
      ],
      "stateMutability": "view",
      "type": "function"
    },
    {
      "inputs": [],
      "name": "STAKING",
      "outputs": [
        {
          "internalType": "bytes32",
          "name": "",
          "type": "bytes32"
        }
      ],
      "stateMutability": "view",
      "type": "function"
    },
    {
      "inputs": [],
      "name": "SWAPPER",
      "outputs": [
        {
          "internalType": "bytes32",
          "name": "",
          "type": "bytes32"
        }
      ],
      "stateMutability": "view",
      "type": "function"
    },
    {
      "inputs": [],
      "name": "TREASURY",
      "outputs": [
        {
          "internalType": "bytes32",
          "name": "",
          "type": "bytes32"
        }
      ],
      "stateMutability": "view",
      "type": "function"
    },
    {
      "inputs": [
        {
          "internalType": "address",
          "name": "keeper",
          "type": "address"
        }
      ],
      "name": "addKeeper",
      "outputs": [],
      "stateMutability": "nonpayable",
      "type": "function"
    },
    {
      "inputs": [
        {
          "internalType": "bytes32",
          "name": "id",
          "type": "bytes32"
        }
      ],
      "name": "getAddress",
      "outputs": [
        {
          "internalType": "address",
          "name": "",
          "type": "address"
        }
      ],
      "stateMutability": "view",
      "type": "function"
    },
    {
      "inputs": [],
      "name": "getKeepers",
      "outputs": [
        {
          "internalType": "address[]",
          "name": "",
          "type": "address[]"
        }
      ],
      "stateMutability": "view",
      "type": "function"
    },
    {
      "inputs": [],
      "name": "getLendingMarket",
      "outputs": [
        {
          "internalType": "address",
          "name": "",
          "type": "address"
        }
      ],
      "stateMutability": "view",
      "type": "function"
    },
    {
      "inputs": [],
      "name": "getPriceOracleAggregator",
      "outputs": [
        {
          "internalType": "address",
          "name": "",
          "type": "address"
        }
      ],
      "stateMutability": "view",
      "type": "function"
    },
    {
      "inputs": [],
      "name": "getStablePool",
      "outputs": [
        {
          "internalType": "address",
          "name": "",
          "type": "address"
        }
      ],
      "stateMutability": "view",
      "type": "function"
    },
    {
      "inputs": [],
      "name": "getStaking",
      "outputs": [
        {
          "internalType": "address",
          "name": "",
          "type": "address"
        }
      ],
      "stateMutability": "view",
      "type": "function"
    },
    {
      "inputs": [],
      "name": "getSwapper",
      "outputs": [
        {
          "internalType": "address",
          "name": "",
          "type": "address"
        }
      ],
      "stateMutability": "view",
      "type": "function"
    },
    {
      "inputs": [],
      "name": "getTreasury",
      "outputs": [
        {
          "internalType": "address",
          "name": "",
          "type": "address"
        }
      ],
      "stateMutability": "view",
      "type": "function"
    },
    {
      "inputs": [
        {
          "internalType": "address",
          "name": "lendingMarket",
          "type": "address"
        },
        {
          "internalType": "address",
          "name": "priceOracleAggregator",
          "type": "address"
        },
        {
          "internalType": "address",
          "name": "treasury",
          "type": "address"
        },
        {
          "internalType": "address",
          "name": "staking",
          "type": "address"
        },
        {
          "internalType": "address",
          "name": "stablePool",
          "type": "address"
        },
        {
          "internalType": "address",
          "name": "swapper",
          "type": "address"
        }
      ],
      "name": "initialize",
      "outputs": [],
      "stateMutability": "nonpayable",
      "type": "function"
    },
    {
      "inputs": [
        {
          "internalType": "address",
          "name": "keeper",
          "type": "address"
        }
      ],
      "name": "isKeeper",
      "outputs": [
        {
          "internalType": "bool",
          "name": "",
          "type": "bool"
        }
      ],
      "stateMutability": "view",
      "type": "function"
    },
    {
      "inputs": [],
      "name": "owner",
      "outputs": [
        {
          "internalType": "address",
          "name": "",
          "type": "address"
        }
      ],
      "stateMutability": "view",
      "type": "function"
    },
    {
      "inputs": [],
      "name": "renounceOwnership",
      "outputs": [],
      "stateMutability": "nonpayable",
      "type": "function"
    },
    {
      "inputs": [
        {
          "internalType": "address",
          "name": "lendingMarket",
          "type": "address"
        }
      ],
      "name": "setLendingMarket",
      "outputs": [],
      "stateMutability": "nonpayable",
      "type": "function"
    },
    {
      "inputs": [
        {
          "internalType": "address",
          "name": "priceOracleAggregator",
          "type": "address"
        }
      ],
      "name": "setPriceOracleAggregator",
      "outputs": [],
      "stateMutability": "nonpayable",
      "type": "function"
    },
    {
      "inputs": [
        {
          "internalType": "address",
          "name": "stablePool",
          "type": "address"
        }
      ],
      "name": "setStablePool",
      "outputs": [],
      "stateMutability": "nonpayable",
      "type": "function"
    },
    {
      "inputs": [
        {
          "internalType": "address",
          "name": "staking",
          "type": "address"
        }
      ],
      "name": "setStaking",
      "outputs": [],
      "stateMutability": "nonpayable",
      "type": "function"
    },
    {
      "inputs": [
        {
          "internalType": "address",
          "name": "swapper",
          "type": "address"
        }
      ],
      "name": "setSwapper",
      "outputs": [],
      "stateMutability": "nonpayable",
      "type": "function"
    },
    {
      "inputs": [
        {
          "internalType": "address",
          "name": "treasury",
          "type": "address"
        }
      ],
      "name": "setTreasury",
      "outputs": [],
      "stateMutability": "nonpayable",
      "type": "function"
    },
    {
      "inputs": [
        {
          "internalType": "address",
          "name": "newOwner",
          "type": "address"
        }
      ],
      "name": "transferOwnership",
      "outputs": [],
      "stateMutability": "nonpayable",
      "type": "function"
    }
  ],
  "transactionHash": "0xc70a40c6a951d03792e375332b784621715e58dde4006ece93a5e73df3fc8707",
  "args": [],
  "numDeployments": 1,
  "solcInputHash": "0682d1d5097352fc56a4f18f50d6ab1e",
  "bytecode": "0x608060405234801561001057600080fd5b5061001a3361001f565b61006f565b600080546001600160a01b038381166001600160a01b0319831681178455604051919092169283917f8be0079c531659141344cd1fd0a4f28419497f9722a3daafe3b4186f6b6457e09190a35050565b610dd08061007e6000396000f3fe608060405234801561001057600080fd5b506004361061018e5760003560e01c8063715018a6116100de5780638ff3909911610097578063b105e39f11610071578063b105e39f1461053b578063cc2a9a5b14610550578063f0f4426014610563578063f2fde38b1461057657600080fd5b80638ff390991461050457806397610f30146105175780639c82f2a41461052857600080fd5b8063715018a61461042d57806372655b7a146104355780637b1391a61461047c57806381dc0fb2146104bf5780638da5cb5b146104e05780638e0cacfd146104f157600080fd5b80633b19e84a1161014b5780634c3d1cb9116101255780634c3d1cb9146103b85780635d6274f0146103cd5780636ba42aaa146103e0578063700d85ae1461041c57600080fd5b80633b19e84a1461031e5780634032b72b1461036257806343ad12af1461037557600080fd5b806304d21cee1461019357806321f8a721146101f65780632819e9d21461021f5780632d2c5565146102455780632d729142146102575780632ea451be146102cb575b600080fd5b6d13115391125391d7d3505492d15560921b60005260016020527f6225b52f6ebd2660bd06622d9c1f676d25b34e3bca604149842923172af6992b546001600160a01b03165b6040516001600160a01b0390911681526020015b60405180910390f35b6101d9610204366004610bf8565b6000908152600160205260409020546001600160a01b031690565b6102376d13115391125391d7d3505492d15560921b81565b6040519081526020016101ed565b61023767545245415355525960c01b81565b6102c9610265366004610c2d565b76282924a1a2afa7a920a1a622afa0a3a3a922a3a0aa27a960491b60005260016020527f6d3c6f9d96039e64a22b4a2dbc99d90635a75e47c460565485d2021e2881269680546001600160a01b0319166001600160a01b0392909216919091179055565b005b76282924a1a2afa7a920a1a622afa0a3a3a922a3a0aa27a960491b60005260016020527f6d3c6f9d96039e64a22b4a2dbc99d90635a75e47c460565485d2021e28812696546001600160a01b03166101d9565b67545245415355525960c01b60005260016020527fabec3bf42c10118f0201dbc23af48d51db076feb8c9f2ecf0d129261aecb0e41546001600160a01b03166101d9565b6102c9610370366004610c2d565b610589565b6629aba0a82822a960c91b60005260016020527f8c9ab979f6b86ad91e8d55f172facc3f35f6a9f6501b4d6f61d4f97b4106946f546001600160a01b03166101d9565b6102376a14d51050931157d413d3d360aa1b81565b6102c96103db366004610c2d565b61062e565b61040c6103ee366004610c2d565b6001600160a01b031660009081526004602052604090205460ff1690565b60405190151581526020016101ed565b6102376629aba0a82822a960c91b81565b6102c96106b3565b6a14d51050931157d413d3d360aa1b60005260016020527f2fe08c067b3427710850a290a3f2cb6846629ad693e99b1400f0d7c6c344aef1546001600160a01b03166101d9565b665354414b494e4760c81b60005260016020527f89f7728deefe18a39faf39aba55cdedda039a8a2d07d4aa8b50887bc7d3313ec546001600160a01b03166101d9565b61023776282924a1a2afa7a920a1a622afa0a3a3a922a3a0aa27a960491b81565b6000546001600160a01b03166101d9565b6102c96104ff366004610c2d565b6106e9565b6102c9610512366004610c2d565b61076b565b610237665354414b494e4760c81b81565b6102c9610536366004610c2d565b6107e9565b610543610867565b6040516101ed9190610c4f565b6102c961055e366004610c9c565b610928565b6102c9610571366004610c2d565b610a8e565b6102c9610584366004610c2d565b610b0d565b6000546001600160a01b031633146105bc5760405162461bcd60e51b81526004016105b390610d10565b60405180910390fd5b80600360006105ca60025490565b815260200190815260200160002060006101000a8154816001600160a01b0302191690836001600160a01b0316021790555061060a600280546001019055565b6001600160a01b03166000908152600460205260409020805460ff19166001179055565b6000546001600160a01b031633146106585760405162461bcd60e51b81526004016105b390610d10565b6d13115391125391d7d3505492d15560921b60005260016020527f6225b52f6ebd2660bd06622d9c1f676d25b34e3bca604149842923172af6992b80546001600160a01b0319166001600160a01b0392909216919091179055565b6000546001600160a01b031633146106dd5760405162461bcd60e51b81526004016105b390610d10565b6106e76000610ba8565b565b6000546001600160a01b031633146107135760405162461bcd60e51b81526004016105b390610d10565b6a14d51050931157d413d3d360aa1b60005260016020527f2fe08c067b3427710850a290a3f2cb6846629ad693e99b1400f0d7c6c344aef180546001600160a01b0319166001600160a01b0392909216919091179055565b6000546001600160a01b031633146107955760405162461bcd60e51b81526004016105b390610d10565b665354414b494e4760c81b60005260016020527f89f7728deefe18a39faf39aba55cdedda039a8a2d07d4aa8b50887bc7d3313ec80546001600160a01b0319166001600160a01b0392909216919091179055565b6000546001600160a01b031633146108135760405162461bcd60e51b81526004016105b390610d10565b6629aba0a82822a960c91b60005260016020527f8c9ab979f6b86ad91e8d55f172facc3f35f6a9f6501b4d6f61d4f97b4106946f80546001600160a01b0319166001600160a01b0392909216919091179055565b6060600061087460025490565b905060008167ffffffffffffffff81111561089157610891610d45565b6040519080825280602002602001820160405280156108ba578160200160208202803683370190505b50905060005b828110156109215760008181526003602052604090205482516001600160a01b03909116908390839081106108f7576108f7610d5b565b6001600160a01b03909216602092830291909101909101528061091981610d71565b9150506108c0565b5092915050565b6000546001600160a01b031633146109525760405162461bcd60e51b81526004016105b390610d10565b60016020527f6225b52f6ebd2660bd06622d9c1f676d25b34e3bca604149842923172af6992b80546001600160a01b03199081166001600160a01b03988916179091557f6d3c6f9d96039e64a22b4a2dbc99d90635a75e47c460565485d2021e2881269680548216968816969096179095557fabec3bf42c10118f0201dbc23af48d51db076feb8c9f2ecf0d129261aecb0e4180548616948716949094179093557f89f7728deefe18a39faf39aba55cdedda039a8a2d07d4aa8b50887bc7d3313ec80548516928616929092179091557f2fe08c067b3427710850a290a3f2cb6846629ad693e99b1400f0d7c6c344aef1805484169185169190911790556629aba0a82822a960c91b6000527f8c9ab979f6b86ad91e8d55f172facc3f35f6a9f6501b4d6f61d4f97b4106946f80549092169216919091179055565b6000546001600160a01b03163314610ab85760405162461bcd60e51b81526004016105b390610d10565b67545245415355525960c01b60005260016020527fabec3bf42c10118f0201dbc23af48d51db076feb8c9f2ecf0d129261aecb0e4180546001600160a01b0319166001600160a01b0392909216919091179055565b6000546001600160a01b03163314610b375760405162461bcd60e51b81526004016105b390610d10565b6001600160a01b038116610b9c5760405162461bcd60e51b815260206004820152602660248201527f4f776e61626c653a206e6577206f776e657220697320746865207a65726f206160448201526564647265737360d01b60648201526084016105b3565b610ba581610ba8565b50565b600080546001600160a01b038381166001600160a01b0319831681178455604051919092169283917f8be0079c531659141344cd1fd0a4f28419497f9722a3daafe3b4186f6b6457e09190a35050565b600060208284031215610c0a57600080fd5b5035919050565b80356001600160a01b0381168114610c2857600080fd5b919050565b600060208284031215610c3f57600080fd5b610c4882610c11565b9392505050565b6020808252825182820181905260009190848201906040850190845b81811015610c905783516001600160a01b031683529284019291840191600101610c6b565b50909695505050505050565b60008060008060008060c08789031215610cb557600080fd5b610cbe87610c11565b9550610ccc60208801610c11565b9450610cda60408801610c11565b9350610ce860608801610c11565b9250610cf660808801610c11565b9150610d0460a08801610c11565b90509295509295509295565b6020808252818101527f4f776e61626c653a2063616c6c6572206973206e6f7420746865206f776e6572604082015260600190565b634e487b7160e01b600052604160045260246000fd5b634e487b7160e01b600052603260045260246000fd5b6000600019821415610d9357634e487b7160e01b600052601160045260246000fd5b506001019056fea2646970667358221220ce8988f3c00a7ca57b3dc7ed0361b2c328153e54ad22e10270883229a2c0557464736f6c63430008090033",
  "devdoc": {
    "kind": "dev",
    "methods": {
      "owner()": {
        "details": "Returns the address of the current owner."
      },
      "renounceOwnership()": {
        "details": "Leaves the contract without owner. It will not be possible to call `onlyOwner` functions anymore. Can only be called by the current owner. NOTE: Renouncing ownership will leave the contract without an owner, thereby removing any functionality that is only available to the owner."
      },
      "transferOwnership(address)": {
        "details": "Transfers ownership of the contract to a new account (`newOwner`). Can only be called by the current owner."
      }
    },
    "version": 1
  },
  "userdoc": {
    "kind": "user",
    "methods": {
      "LENDING_MARKET()": {
        "notice": "lending contract"
      },
      "PRICE_ORACLE_AGGREGATOR()": {
        "notice": "token price oracle aggregator"
      },
      "STABLE_POOL()": {
        "notice": "stability pool"
      },
      "STAKING()": {
        "notice": "staking address (40% of liquidation penalty + 80% of interest + borrow fee)"
      },
      "SWAPPER()": {
        "notice": "swapper contract"
      },
      "TREASURY()": {
        "notice": "treasury address (10% of liquidation penalty + 20% of interest + borrow fee)"
      }
    },
    "version": 1
  },
  "storageLayout": {
    "storage": [
      {
        "astId": 1471,
        "contract": "contracts/LendingAddressRegistry.sol:LendingAddressRegistry",
        "label": "_owner",
        "offset": 0,
        "slot": "0",
        "type": "t_address"
      },
      {
        "astId": 4762,
        "contract": "contracts/LendingAddressRegistry.sol:LendingAddressRegistry",
        "label": "_addresses",
        "offset": 0,
        "slot": "1",
        "type": "t_mapping(t_bytes32,t_address)"
      },
      {
        "astId": 4765,
        "contract": "contracts/LendingAddressRegistry.sol:LendingAddressRegistry",
        "label": "_keeperIndexTracker",
        "offset": 0,
        "slot": "2",
        "type": "t_struct(Counter)3657_storage"
      },
      {
        "astId": 4769,
        "contract": "contracts/LendingAddressRegistry.sol:LendingAddressRegistry",
        "label": "_keepers",
        "offset": 0,
        "slot": "3",
        "type": "t_mapping(t_uint256,t_address)"
      },
      {
        "astId": 4773,
        "contract": "contracts/LendingAddressRegistry.sol:LendingAddressRegistry",
        "label": "_isKeeper",
        "offset": 0,
        "slot": "4",
        "type": "t_mapping(t_address,t_bool)"
      }
    ],
    "types": {
      "t_address": {
        "encoding": "inplace",
        "label": "address",
        "numberOfBytes": "20"
      },
      "t_bool": {
        "encoding": "inplace",
        "label": "bool",
        "numberOfBytes": "1"
      },
      "t_bytes32": {
        "encoding": "inplace",
        "label": "bytes32",
        "numberOfBytes": "32"
      },
      "t_mapping(t_address,t_bool)": {
        "encoding": "mapping",
        "key": "t_address",
        "label": "mapping(address => bool)",
        "numberOfBytes": "32",
        "value": "t_bool"
      },
      "t_mapping(t_bytes32,t_address)": {
        "encoding": "mapping",
        "key": "t_bytes32",
        "label": "mapping(bytes32 => address)",
        "numberOfBytes": "32",
        "value": "t_address"
      },
      "t_mapping(t_uint256,t_address)": {
        "encoding": "mapping",
        "key": "t_uint256",
        "label": "mapping(uint256 => address)",
        "numberOfBytes": "32",
        "value": "t_address"
      },
      "t_struct(Counter)3657_storage": {
        "encoding": "inplace",
        "label": "struct Counters.Counter",
        "members": [
          {
            "astId": 3656,
            "contract": "contracts/LendingAddressRegistry.sol:LendingAddressRegistry",
            "label": "_value",
            "offset": 0,
            "slot": "0",
            "type": "t_uint256"
          }
        ],
        "numberOfBytes": "32"
      },
      "t_uint256": {
        "encoding": "inplace",
        "label": "uint256",
        "numberOfBytes": "32"
      }
    }
  }
}