{
  "address": "0x5461dbf7814020c62686218bc2Dd4577A66Ca124",
  "abi": [
    {
      "inputs": [
        {
          "internalType": "address",
          "name": "_provider",
          "type": "address"
        },
        {
          "internalType": "address",
          "name": "_airUSD",
          "type": "address"
        }
      ],
      "stateMutability": "nonpayable",
      "type": "constructor"
    },
    {
      "anonymous": false,
      "inputs": [
        {
          "indexed": false,
          "internalType": "address",
          "name": "user",
          "type": "address"
        },
        {
          "indexed": false,
          "internalType": "uint256",
          "name": "amount",
          "type": "uint256"
        },
        {
          "indexed": false,
          "internalType": "uint256",
          "name": "shares",
          "type": "uint256"
        },
        {
          "indexed": false,
          "internalType": "address",
          "name": "onBehalf",
          "type": "address"
        }
      ],
      "name": "Deposit",
      "type": "event"
    },
    {
      "anonymous": false,
      "inputs": [
        {
          "indexed": true,
          "internalType": "address",
          "name": "previousOwner",
          "type": "address"
        },
        {
          "indexed": true,
          "internalType": "address",
          "name": "newOwner",
          "type": "address"
        }
      ],
      "name": "OwnershipTransferred",
      "type": "event"
    },
    {
      "anonymous": false,
      "inputs": [
        {
          "indexed": false,
          "internalType": "address",
          "name": "keeper",
          "type": "address"
        },
        {
          "indexed": false,
          "internalType": "uint256",
          "name": "amount",
          "type": "uint256"
        },
        {
          "indexed": false,
          "internalType": "bytes",
          "name": "data",
          "type": "bytes"
        }
      ],
      "name": "Prepare",
      "type": "event"
    },
    {
      "anonymous": false,
      "inputs": [
        {
          "indexed": false,
          "internalType": "address",
          "name": "user",
          "type": "address"
        },
        {
          "indexed": false,
          "internalType": "uint256",
          "name": "amount",
          "type": "uint256"
        },
        {
          "indexed": false,
          "internalType": "uint256",
          "name": "shares",
          "type": "uint256"
        },
        {
          "indexed": false,
          "internalType": "address",
          "name": "recipient",
          "type": "address"
        }
      ],
      "name": "Withdraw",
      "type": "event"
    },
    {
      "inputs": [],
      "name": "addressProvider",
      "outputs": [
        {
          "internalType": "contract ILendingAddressRegistry",
          "name": "",
          "type": "address"
        }
      ],
      "stateMutability": "view",
      "type": "function"
    },
    {
      "inputs": [],
      "name": "airUSD",
      "outputs": [
        {
          "internalType": "address",
          "name": "",
          "type": "address"
        }
      ],
      "stateMutability": "view",
      "type": "function"
    },
    {
      "inputs": [
        {
          "internalType": "uint256",
          "name": "shares",
          "type": "uint256"
        }
      ],
      "name": "amountFromShares",
      "outputs": [
        {
          "internalType": "uint256",
          "name": "",
          "type": "uint256"
        }
      ],
      "stateMutability": "view",
      "type": "function"
    },
    {
      "inputs": [
        {
          "internalType": "address",
          "name": "",
          "type": "address"
        }
      ],
      "name": "balanceOf",
      "outputs": [
        {
          "internalType": "uint256",
          "name": "",
          "type": "uint256"
        }
      ],
      "stateMutability": "view",
      "type": "function"
    },
    {
      "inputs": [
        {
          "internalType": "uint256",
          "name": "_amount",
          "type": "uint256"
        }
      ],
      "name": "deposit",
      "outputs": [],
      "stateMutability": "nonpayable",
      "type": "function"
    },
    {
      "inputs": [
        {
          "internalType": "uint256",
          "name": "_amount",
          "type": "uint256"
        },
        {
          "internalType": "address",
          "name": "_onBehalf",
          "type": "address"
        }
      ],
      "name": "depositFor",
      "outputs": [],
      "stateMutability": "nonpayable",
      "type": "function"
    },
    {
      "inputs": [],
      "name": "owner",
      "outputs": [
        {
          "internalType": "address",
          "name": "",
          "type": "address"
        }
      ],
      "stateMutability": "view",
      "type": "function"
    },
    {
      "inputs": [
        {
          "internalType": "uint256",
          "name": "_amount",
          "type": "uint256"
        },
        {
          "internalType": "bytes",
          "name": "_data",
          "type": "bytes"
        }
      ],
      "name": "prepare",
      "outputs": [],
      "stateMutability": "nonpayable",
      "type": "function"
    },
    {
      "inputs": [],
      "name": "renounceOwnership",
      "outputs": [],
      "stateMutability": "nonpayable",
      "type": "function"
    },
    {
      "inputs": [
        {
          "internalType": "address",
          "name": "_provider",
          "type": "address"
        }
      ],
      "name": "setAddressProvider",
      "outputs": [],
      "stateMutability": "nonpayable",
      "type": "function"
    },
    {
      "inputs": [
        {
          "internalType": "uint256",
          "name": "amount",
          "type": "uint256"
        }
      ],
      "name": "sharesFromAmount",
      "outputs": [
        {
          "internalType": "uint256",
          "name": "",
          "type": "uint256"
        }
      ],
      "stateMutability": "view",
      "type": "function"
    },
    {
      "inputs": [],
      "name": "totalAirUSD",
      "outputs": [
        {
          "internalType": "uint256",
          "name": "",
          "type": "uint256"
        }
      ],
      "stateMutability": "view",
      "type": "function"
    },
    {
      "inputs": [],
      "name": "totalSupply",
      "outputs": [
        {
          "internalType": "uint256",
          "name": "",
          "type": "uint256"
        }
      ],
      "stateMutability": "view",
      "type": "function"
    },
    {
      "inputs": [
        {
          "internalType": "address",
          "name": "newOwner",
          "type": "address"
        }
      ],
      "name": "transferOwnership",
      "outputs": [],
      "stateMutability": "nonpayable",
      "type": "function"
    },
    {
      "inputs": [
        {
          "internalType": "uint256",
          "name": "_shares",
          "type": "uint256"
        }
      ],
      "name": "withdraw",
      "outputs": [],
      "stateMutability": "nonpayable",
      "type": "function"
    },
    {
      "inputs": [
        {
          "internalType": "uint256",
          "name": "_shares",
          "type": "uint256"
        },
        {
          "internalType": "address",
          "name": "_onBehalf",
          "type": "address"
        }
      ],
      "name": "withdrawTo",
      "outputs": [],
      "stateMutability": "nonpayable",
      "type": "function"
    }
  ],
  "transactionHash": "0x4655f75cb59de626b7aeb34215fe2c246e2e8eaabd02b89f67e5747ac793e4db",
  "args": [
    "0x12d6c8FC2bfbD73eA24d58877BfEaE639669d9E6",
    "0x67Bc8587731E24999a1b2028bA537c79bAa6FC82"
  ],
  "numDeployments": 1,
  "solcInputHash": "ba47b2bb7d8b39e6f3391669ef428c08",
  "bytecode": "0x608060405234801561001057600080fd5b5060405161100638038061100683398101604081905261002f916100d5565b61003833610069565b600180546001600160a01b039384166001600160a01b03199182161790915560028054929093169116179055610108565b600080546001600160a01b038381166001600160a01b0319831681178455604051919092169283917f8be0079c531659141344cd1fd0a4f28419497f9722a3daafe3b4186f6b6457e09190a35050565b80516001600160a01b03811681146100d057600080fd5b919050565b600080604083850312156100e857600080fd5b6100f1836100b9565b91506100ff602084016100b9565b90509250929050565b610eef806101176000396000f3fe608060405234801561001057600080fd5b50600436106101005760003560e01c806370a0823111610097578063b6b55f2511610066578063b6b55f2514610201578063c86283c814610214578063f2fde38b14610227578063f79d35d71461023a57600080fd5b806370a08231146101b5578063715018a6146101d557806374747523146101dd5780638da5cb5b146101f057600080fd5b80632e1a7d4d116100d35780632e1a7d4d14610174578063360079ff1461018757806336efd16f1461018f578063541f3c3b146101a257600080fd5b806318160ddd146101055780631a5fa2e3146101215780632719b233146101365780632954018c14610149575b600080fd5b61010e60045481565b6040519081526020015b60405180910390f35b61013461012f366004610bee565b61024d565b005b610134610144366004610c09565b6102a2565b60015461015c906001600160a01b031681565b6040516001600160a01b039091168152602001610118565b610134610182366004610c85565b61046a565b61010e610477565b61013461019d366004610c9e565b6104f8565b60025461015c906001600160a01b031681565b61010e6101c3366004610bee565b60036020526000908152604090205481565b6101346105bc565b61010e6101eb366004610c85565b6105f2565b6000546001600160a01b031661015c565b61013461020f366004610c85565b6106b8565b610134610222366004610c9e565b6106c2565b610134610235366004610bee565b6107c3565b61010e610248366004610c85565b61085b565b6000546001600160a01b031633146102805760405162461bcd60e51b815260040161027790610cca565b60405180910390fd5b600180546001600160a01b0319166001600160a01b0392909216919091179055565b6001546040516335d2155560e11b81523360048201526001600160a01b0390911690636ba42aaa9060240160206040518083038186803b1580156102e557600080fd5b505afa1580156102f9573d6000803e3d6000fd5b505050506040513d601f19601f8201168201806040525081019061031d9190610cff565b6103565760405162461bcd60e51b815260206004820152600a6024820152693737ba1035b2b2b832b960b11b6044820152606401610277565b6000610360610477565b60025490915061037a906001600160a01b03163386610892565b60405163137f30f360e11b815233906326fe61e6906103a190879087908790600401610d4a565b600060405180830381600087803b1580156103bb57600080fd5b505af11580156103cf573d6000803e3d6000fd5b5050505060006103dd610477565b9050818110156104265760405162461bcd60e51b81526020600482015260146024820152736e6f7420656e6f7567682066756e64206261636b60601b6044820152606401610277565b7fc746a04957ed9f04f9e0af636348fbe16cbc0bab18947caf4d66824212ffcd9d3386868660405161045b9493929190610d6d565b60405180910390a15050505050565b61047481336106c2565b50565b6002546040516370a0823160e01b81523060048201526000916001600160a01b0316906370a082319060240160206040518083038186803b1580156104bb57600080fd5b505afa1580156104cf573d6000803e3d6000fd5b505050506040513d601f19601f820116820180604052508101906104f39190610d9f565b905090565b600254610510906001600160a01b03163330856108fa565b600061051b8361085b565b6001600160a01b038316600090815260036020526040812080549293508392909190610548908490610dce565b9250508190555080600460008282546105619190610dce565b909155505060408051338152602081018590529081018290526001600160a01b03831660608201527f02d7e648dd130fc184d383e55bb126ac4c9c60e8f94bf05acdf557ba2d540b47906080015b60405180910390a1505050565b6000546001600160a01b031633146105e65760405162461bcd60e51b815260040161027790610cca565b6105f06000610938565b565b6000806105fd610477565b90506004546000148061060e575080155b1561061a575090919050565b600480546002546040516370a0823160e01b8152309381019390935290916001600160a01b03909116906370a082319060240160206040518083038186803b15801561066557600080fd5b505afa158015610679573d6000803e3d6000fd5b505050506040513d601f19601f8201168201806040525081019061069d9190610d9f565b6106a79085610de6565b6106b19190610e05565b9392505050565b61047481336104f8565b336000908152600360205260409020548211156107125760405162461bcd60e51b815260206004820152600e60248201526d1a5b9d985b1a5908185b5bdd5b9d60921b6044820152606401610277565b600061071d836105f2565b33600090815260036020526040812080549293508592909190610741908490610e27565b92505081905550826004600082825461075a9190610e27565b9091555050600254610776906001600160a01b03168383610892565b60408051338152602081018390529081018490526001600160a01b03831660608201527f8166bf25f8a2b7ed3c85049207da4358d16edbed977d23fa2ee6f0dde3ec2132906080016105af565b6000546001600160a01b031633146107ed5760405162461bcd60e51b815260040161027790610cca565b6001600160a01b0381166108525760405162461bcd60e51b815260206004820152602660248201527f4f776e61626c653a206e6577206f776e657220697320746865207a65726f206160448201526564647265737360d01b6064820152608401610277565b61047481610938565b600080610866610477565b905060045460001480610877575080155b15610883575090919050565b80600454846106a79190610de6565b6040516001600160a01b0383166024820152604481018290526108f590849063a9059cbb60e01b906064015b60408051601f198184030181529190526020810180516001600160e01b03166001600160e01b031990931692909217909152610988565b505050565b6040516001600160a01b03808516602483015283166044820152606481018290526109329085906323b872dd60e01b906084016108be565b50505050565b600080546001600160a01b038381166001600160a01b0319831681178455604051919092169283917f8be0079c531659141344cd1fd0a4f28419497f9722a3daafe3b4186f6b6457e09190a35050565b60006109dd826040518060400160405280602081526020017f5361666545524332303a206c6f772d6c6576656c2063616c6c206661696c6564815250856001600160a01b0316610a5a9092919063ffffffff16565b8051909150156108f557808060200190518101906109fb9190610cff565b6108f55760405162461bcd60e51b815260206004820152602a60248201527f5361666545524332303a204552433230206f7065726174696f6e20646964206e6044820152691bdd081cdd58d8d9595960b21b6064820152608401610277565b6060610a698484600085610a71565b949350505050565b606082471015610ad25760405162461bcd60e51b815260206004820152602660248201527f416464726573733a20696e73756666696369656e742062616c616e636520666f6044820152651c8818d85b1b60d21b6064820152608401610277565b843b610b205760405162461bcd60e51b815260206004820152601d60248201527f416464726573733a2063616c6c20746f206e6f6e2d636f6e74726163740000006044820152606401610277565b600080866001600160a01b03168587604051610b3c9190610e6a565b60006040518083038185875af1925050503d8060008114610b79576040519150601f19603f3d011682016040523d82523d6000602084013e610b7e565b606091505b5091509150610b8e828286610b99565b979650505050505050565b60608315610ba85750816106b1565b825115610bb85782518084602001fd5b8160405162461bcd60e51b81526004016102779190610e86565b80356001600160a01b0381168114610be957600080fd5b919050565b600060208284031215610c0057600080fd5b6106b182610bd2565b600080600060408486031215610c1e57600080fd5b83359250602084013567ffffffffffffffff80821115610c3d57600080fd5b818601915086601f830112610c5157600080fd5b813581811115610c6057600080fd5b876020828501011115610c7257600080fd5b6020830194508093505050509250925092565b600060208284031215610c9757600080fd5b5035919050565b60008060408385031215610cb157600080fd5b82359150610cc160208401610bd2565b90509250929050565b6020808252818101527f4f776e61626c653a2063616c6c6572206973206e6f7420746865206f776e6572604082015260600190565b600060208284031215610d1157600080fd5b815180151581146106b157600080fd5b81835281816020850137506000828201602090810191909152601f909101601f19169091010190565b838152604060208201526000610d64604083018486610d21565b95945050505050565b60018060a01b0385168152836020820152606060408201526000610d95606083018486610d21565b9695505050505050565b600060208284031215610db157600080fd5b5051919050565b634e487b7160e01b600052601160045260246000fd5b60008219821115610de157610de1610db8565b500190565b6000816000190483118215151615610e0057610e00610db8565b500290565b600082610e2257634e487b7160e01b600052601260045260246000fd5b500490565b600082821015610e3957610e39610db8565b500390565b60005b83811015610e59578181015183820152602001610e41565b838111156109325750506000910152565b60008251610e7c818460208701610e3e565b9190910192915050565b6020815260008251806020840152610ea5816040850160208701610e3e565b601f01601f1916919091016040019291505056fea264697066735822122038f5f46b7b077adcd786c51c27c73d3903eed35723ab5379d6e549eacf33433464736f6c63430008090033",
  "devdoc": {
    "kind": "dev",
    "methods": {
      "owner()": {
        "details": "Returns the address of the current owner."
      },
      "renounceOwnership()": {
        "details": "Leaves the contract without owner. It will not be possible to call `onlyOwner` functions anymore. Can only be called by the current owner. NOTE: Renouncing ownership will leave the contract without an owner, thereby removing any functionality that is only available to the owner."
      },
      "transferOwnership(address)": {
        "details": "Transfers ownership of the contract to a new account (`newOwner`). Can only be called by the current owner."
      }
    },
    "title": "Stable Pool",
    "version": 1
  },
  "userdoc": {
    "kind": "user",
    "methods": {
      "addressProvider()": {
        "notice": "address provider"
      },
      "airUSD()": {
        "notice": "AirUSD token address"
      },
      "balanceOf(address)": {
        "notice": "user deposited amount"
      },
      "totalSupply()": {
        "notice": "total deposited amount"
      }
    },
    "version": 1
  },
  "storageLayout": {
    "storage": [
      {
        "astId": 1471,
        "contract": "contracts/StablePool.sol:StablePool",
        "label": "_owner",
        "offset": 0,
        "slot": "0",
        "type": "t_address"
      },
      {
        "astId": 6883,
        "contract": "contracts/StablePool.sol:StablePool",
        "label": "addressProvider",
        "offset": 0,
        "slot": "1",
        "type": "t_contract(ILendingAddressRegistry)11630"
      },
      {
        "astId": 6886,
        "contract": "contracts/StablePool.sol:StablePool",
        "label": "airUSD",
        "offset": 0,
        "slot": "2",
        "type": "t_address"
      },
      {
        "astId": 6891,
        "contract": "contracts/StablePool.sol:StablePool",
        "label": "balanceOf",
        "offset": 0,
        "slot": "3",
        "type": "t_mapping(t_address,t_uint256)"
      },
      {
        "astId": 6894,
        "contract": "contracts/StablePool.sol:StablePool",
        "label": "totalSupply",
        "offset": 0,
        "slot": "4",
        "type": "t_uint256"
      }
    ],
    "types": {
      "t_address": {
        "encoding": "inplace",
        "label": "address",
        "numberOfBytes": "20"
      },
      "t_contract(ILendingAddressRegistry)11630": {
        "encoding": "inplace",
        "label": "contract ILendingAddressRegistry",
        "numberOfBytes": "20"
      },
      "t_mapping(t_address,t_uint256)": {
        "encoding": "mapping",
        "key": "t_address",
        "label": "mapping(address => uint256)",
        "numberOfBytes": "32",
        "value": "t_uint256"
      },
      "t_uint256": {
        "encoding": "inplace",
        "label": "uint256",
        "numberOfBytes": "32"
      }
    }
  }
}