{
  "address": "0xCE9e500710dBFCf389198e0DfcD032e2c70B0B6E",
  "abi": [
    {
      "inputs": [],
      "stateMutability": "nonpayable",
      "type": "constructor"
    },
    {
      "anonymous": false,
      "inputs": [
        {
          "indexed": true,
          "internalType": "address",
          "name": "previousOwner",
          "type": "address"
        },
        {
          "indexed": true,
          "internalType": "address",
          "name": "newOwner",
          "type": "address"
        }
      ],
      "name": "OwnershipTransferred",
      "type": "event"
    },
    {
      "inputs": [
        {
          "internalType": "address",
          "name": "_tokenIn",
          "type": "address"
        },
        {
          "internalType": "address",
          "name": "_tokenOut",
          "type": "address"
        },
        {
          "internalType": "address",
          "name": "_swapperImpl",
          "type": "address"
        }
      ],
      "name": "addSwapperImpl",
      "outputs": [],
      "stateMutability": "nonpayable",
      "type": "function"
    },
    {
      "inputs": [],
      "name": "owner",
      "outputs": [
        {
          "internalType": "address",
          "name": "",
          "type": "address"
        }
      ],
      "stateMutability": "view",
      "type": "function"
    },
    {
      "inputs": [],
      "name": "renounceOwnership",
      "outputs": [],
      "stateMutability": "nonpayable",
      "type": "function"
    },
    {
      "inputs": [
        {
          "internalType": "address",
          "name": "_tokenIn",
          "type": "address"
        },
        {
          "internalType": "address",
          "name": "_tokenOut",
          "type": "address"
        },
        {
          "internalType": "uint256",
          "name": "_amountIn",
          "type": "uint256"
        },
        {
          "internalType": "address",
          "name": "_to",
          "type": "address"
        }
      ],
      "name": "swap",
      "outputs": [
        {
          "internalType": "uint256",
          "name": "amountOut",
          "type": "uint256"
        }
      ],
      "stateMutability": "nonpayable",
      "type": "function"
    },
    {
      "inputs": [
        {
          "internalType": "address",
          "name": "",
          "type": "address"
        },
        {
          "internalType": "address",
          "name": "",
          "type": "address"
        }
      ],
      "name": "swapperImpls",
      "outputs": [
        {
          "internalType": "address",
          "name": "",
          "type": "address"
        }
      ],
      "stateMutability": "view",
      "type": "function"
    },
    {
      "inputs": [
        {
          "internalType": "address",
          "name": "newOwner",
          "type": "address"
        }
      ],
      "name": "transferOwnership",
      "outputs": [],
      "stateMutability": "nonpayable",
      "type": "function"
    }
  ],
  "transactionHash": "0x748e6c68834f444ff52dd3ddcbc388f0c3d0fb96292667ec42960bc60e51227a",
  "args": [],
  "numDeployments": 1,
  "solcInputHash": "77ef8c890880c91894925b5c77442c96",
  "bytecode": "0x608060405234801561001057600080fd5b5061001a3361001f565b61006f565b600080546001600160a01b038381166001600160a01b0319831681178455604051919092169283917f8be0079c531659141344cd1fd0a4f28419497f9722a3daafe3b4186f6b6457e09190a35050565b610b628061007e6000396000f3fe608060405234801561001057600080fd5b50600436106100625760003560e01c8063059549d01461006757806355dc6aae1461007c5780636e81221c146100cd578063715018a6146100ee5780638da5cb5b146100f6578063f2fde38b14610107575b600080fd5b61007a610075366004610930565b61011a565b005b6100b061008a36600461097b565b60016020908152600092835260408084209091529082529020546001600160a01b031681565b6040516001600160a01b0390911681526020015b60405180910390f35b6100e06100db3660046109b4565b6102e8565b6040519081526020016100c4565b61007a610414565b6000546001600160a01b03166100b0565b61007a610115366004610a07565b61044a565b6000546001600160a01b0316331461014d5760405162461bcd60e51b815260040161014490610a24565b60405180910390fd5b826001600160a01b0316816001600160a01b0316636daf390b6040518163ffffffff1660e01b815260040160206040518083038186803b15801561019057600080fd5b505afa1580156101a4573d6000803e3d6000fd5b505050506040513d601f19601f820116820180604052508101906101c89190610a59565b6001600160a01b031614801561025f5750816001600160a01b0316816001600160a01b031663d0202d3b6040518163ffffffff1660e01b815260040160206040518083038186803b15801561021c57600080fd5b505afa158015610230573d6000803e3d6000fd5b505050506040513d601f19601f820116820180604052508101906102549190610a59565b6001600160a01b0316145b6102ab5760405162461bcd60e51b815260206004820152601e60248201527f696e76616c6964207377617070657220696d706c656d656e746174696f6e00006044820152606401610144565b6001600160a01b03928316600090815260016020908152604080832094861683529390529190912080546001600160a01b03191691909216179055565b6001600160a01b03808516600090815260016020908152604080832087851684529091528120549091168061035f5760405162461bcd60e51b815260206004820181905260248201527f7377617070657220696d706c656d656e746174696f6e206e6f7420666f756e646044820152606401610144565b6103746001600160a01b0387163330876104e5565b6103886001600160a01b0387168286610556565b604051631a730de160e31b8152600481018590526001600160a01b03848116602483015282169063d3986f0890604401602060405180830381600087803b1580156103d257600080fd5b505af11580156103e6573d6000803e3d6000fd5b505050506040513d601f19601f8201168201806040525081019061040a9190610a76565b9695505050505050565b6000546001600160a01b0316331461043e5760405162461bcd60e51b815260040161014490610a24565b610448600061067f565b565b6000546001600160a01b031633146104745760405162461bcd60e51b815260040161014490610a24565b6001600160a01b0381166104d95760405162461bcd60e51b815260206004820152602660248201527f4f776e61626c653a206e6577206f776e657220697320746865207a65726f206160448201526564647265737360d01b6064820152608401610144565b6104e28161067f565b50565b6040516001600160a01b03808516602483015283166044820152606481018290526105509085906323b872dd60e01b906084015b60408051601f198184030181529190526020810180516001600160e01b03166001600160e01b0319909316929092179091526106cf565b50505050565b8015806105df5750604051636eb1769f60e11b81523060048201526001600160a01b03838116602483015284169063dd62ed3e9060440160206040518083038186803b1580156105a557600080fd5b505afa1580156105b9573d6000803e3d6000fd5b505050506040513d601f19601f820116820180604052508101906105dd9190610a76565b155b61064a5760405162461bcd60e51b815260206004820152603660248201527f5361666545524332303a20617070726f76652066726f6d206e6f6e2d7a65726f60448201527520746f206e6f6e2d7a65726f20616c6c6f77616e636560501b6064820152608401610144565b6040516001600160a01b03831660248201526044810182905261067a90849063095ea7b360e01b90606401610519565b505050565b600080546001600160a01b038381166001600160a01b0319831681178455604051919092169283917f8be0079c531659141344cd1fd0a4f28419497f9722a3daafe3b4186f6b6457e09190a35050565b6000610724826040518060400160405280602081526020017f5361666545524332303a206c6f772d6c6576656c2063616c6c206661696c6564815250856001600160a01b03166107a19092919063ffffffff16565b80519091501561067a57808060200190518101906107429190610a8f565b61067a5760405162461bcd60e51b815260206004820152602a60248201527f5361666545524332303a204552433230206f7065726174696f6e20646964206e6044820152691bdd081cdd58d8d9595960b21b6064820152608401610144565b60606107b084846000856107ba565b90505b9392505050565b60608247101561081b5760405162461bcd60e51b815260206004820152602660248201527f416464726573733a20696e73756666696369656e742062616c616e636520666f6044820152651c8818d85b1b60d21b6064820152608401610144565b843b6108695760405162461bcd60e51b815260206004820152601d60248201527f416464726573733a2063616c6c20746f206e6f6e2d636f6e74726163740000006044820152606401610144565b600080866001600160a01b031685876040516108859190610add565b60006040518083038185875af1925050503d80600081146108c2576040519150601f19603f3d011682016040523d82523d6000602084013e6108c7565b606091505b50915091506108d78282866108e2565b979650505050505050565b606083156108f15750816107b3565b8251156109015782518084602001fd5b8160405162461bcd60e51b81526004016101449190610af9565b6001600160a01b03811681146104e257600080fd5b60008060006060848603121561094557600080fd5b83356109508161091b565b925060208401356109608161091b565b915060408401356109708161091b565b809150509250925092565b6000806040838503121561098e57600080fd5b82356109998161091b565b915060208301356109a98161091b565b809150509250929050565b600080600080608085870312156109ca57600080fd5b84356109d58161091b565b935060208501356109e58161091b565b92506040850135915060608501356109fc8161091b565b939692955090935050565b600060208284031215610a1957600080fd5b81356107b38161091b565b6020808252818101527f4f776e61626c653a2063616c6c6572206973206e6f7420746865206f776e6572604082015260600190565b600060208284031215610a6b57600080fd5b81516107b38161091b565b600060208284031215610a8857600080fd5b5051919050565b600060208284031215610aa157600080fd5b815180151581146107b357600080fd5b60005b83811015610acc578181015183820152602001610ab4565b838111156105505750506000910152565b60008251610aef818460208701610ab1565b9190910192915050565b6020815260008251806020840152610b18816040850160208701610ab1565b601f01601f1916919091016040019291505056fea2646970667358221220c850d8aff461942c5ddd64095cd6bfdb1e59969f4ceb007ae3b8005300c3bcc664736f6c63430008090033",
  "devdoc": {
    "kind": "dev",
    "methods": {
      "owner()": {
        "details": "Returns the address of the current owner."
      },
      "renounceOwnership()": {
        "details": "Leaves the contract without owner. It will not be possible to call `onlyOwner` functions anymore. Can only be called by the current owner. NOTE: Renouncing ownership will leave the contract without an owner, thereby removing any functionality that is only available to the owner."
      },
      "transferOwnership(address)": {
        "details": "Transfers ownership of the contract to a new account (`newOwner`). Can only be called by the current owner."
      }
    },
    "version": 1
  },
  "userdoc": {
    "kind": "user",
    "methods": {},
    "version": 1
  },
  "storageLayout": {
    "storage": [
      {
        "astId": 1471,
        "contract": "contracts/Swapper.sol:Swapper",
        "label": "_owner",
        "offset": 0,
        "slot": "0",
        "type": "t_address"
      },
      {
        "astId": 7588,
        "contract": "contracts/Swapper.sol:Swapper",
        "label": "swapperImpls",
        "offset": 0,
        "slot": "1",
        "type": "t_mapping(t_address,t_mapping(t_address,t_address))"
      }
    ],
    "types": {
      "t_address": {
        "encoding": "inplace",
        "label": "address",
        "numberOfBytes": "20"
      },
      "t_mapping(t_address,t_address)": {
        "encoding": "mapping",
        "key": "t_address",
        "label": "mapping(address => address)",
        "numberOfBytes": "32",
        "value": "t_address"
      },
      "t_mapping(t_address,t_mapping(t_address,t_address))": {
        "encoding": "mapping",
        "key": "t_address",
        "label": "mapping(address => mapping(address => address))",
        "numberOfBytes": "32",
        "value": "t_mapping(t_address,t_address)"
      }
    }
  }
}