{
  "address": "0xdc86b28359d6efC8bBd79340086bf96b7ED00F3C",
  "abi": [
    {
      "inputs": [
        {
          "internalType": "uint256",
          "name": "price",
          "type": "uint256"
        }
      ],
      "stateMutability": "nonpayable",
      "type": "constructor"
    },
    {
      "inputs": [
        {
          "internalType": "uint256",
          "name": "price",
          "type": "uint256"
        }
      ],
      "name": "setViewPriceInUSD",
      "outputs": [],
      "stateMutability": "nonpayable",
      "type": "function"
    },
    {
      "inputs": [],
      "name": "viewPriceInUSD",
      "outputs": [
        {
          "internalType": "uint256",
          "name": "",
          "type": "uint256"
        }
      ],
      "stateMutability": "view",
      "type": "function"
    }
  ],
  "transactionHash": "0x9a22df79c4f17fcc3e451b62568474cac0c0d4b56e2457561a4c21dd8d03587d",
  "args": [
    "100000000"
  ],
  "numDeployments": 1,
  "solcInputHash": "645436b8e6092ed85b5f93602d4f52b2",
  "bytecode": "0x608060405234801561001057600080fd5b5060405161010f38038061010f83398101604081905261002f91610037565b600055610050565b60006020828403121561004957600080fd5b5051919050565b60b18061005e6000396000f3fe6080604052348015600f57600080fd5b506004361060325760003560e01c80634b40c158146037578063f55fa17f146049575b600080fd5b604760423660046063565b600055565b005b605160005481565b60405190815260200160405180910390f35b600060208284031215607457600080fd5b503591905056fea2646970667358221220a8c58699d55fce9f68545a8a27c611ebb962de25cd1c84e16a12b531db863a3a64736f6c63430008090033",
  "devdoc": {
    "kind": "dev",
    "methods": {},
    "version": 1
  },
  "userdoc": {
    "kind": "user",
    "methods": {},
    "version": 1
  },
  "storageLayout": {
    "storage": [
      {
        "astId": 12530,
        "contract": "contracts/mock/MockChainlinkUSDAdapter.sol:MockChainlinkUSDAdapter",
        "label": "viewPriceInUSD",
        "offset": 0,
        "slot": "0",
        "type": "t_uint256"
      }
    ],
    "types": {
      "t_uint256": {
        "encoding": "inplace",
        "label": "uint256",
        "numberOfBytes": "32"
      }
    }
  }
}