{
  "address": "0xCB5DBfBCd9dD74e9765A8dF094478d1b6fa533eE",
  "abi": [
    {
      "inputs": [
        {
          "internalType": "address",
          "name": "_asset",
          "type": "address"
        },
        {
          "internalType": "address",
          "name": "_aggregator",
          "type": "address"
        }
      ],
      "stateMutability": "nonpayable",
      "type": "constructor"
    },
    {
      "inputs": [],
      "name": "aggregator",
      "outputs": [
        {
          "internalType": "contract IChainlinkV3Aggregator",
          "name": "",
          "type": "address"
        }
      ],
      "stateMutability": "view",
      "type": "function"
    },
    {
      "inputs": [],
      "name": "asset",
      "outputs": [
        {
          "internalType": "address",
          "name": "",
          "type": "address"
        }
      ],
      "stateMutability": "view",
      "type": "function"
    },
    {
      "inputs": [],
      "name": "viewPriceInUSD",
      "outputs": [
        {
          "internalType": "uint256",
          "name": "",
          "type": "uint256"
        }
      ],
      "stateMutability": "view",
      "type": "function"
    }
  ],
  "transactionHash": "0x45151f9c8266c7db5c91d807c3c1ea04967b9a3ec5fb06095a341ffd0e0dca1c",
  "args": [
    "0x7e3218320F867e2cF8526CaafE72700b81012803",
    "0x8A753747A1Fa494EC906cE90E9f37563A8AF630e"
  ],
  "numDeployments": 1,
  "solcInputHash": "ba47b2bb7d8b39e6f3391669ef428c08",
  "bytecode": "0x60c060405234801561001057600080fd5b506040516105ba3803806105ba83398101604081905261002f916100b1565b6001600160a01b03811661007e5760405162461bcd60e51b815260206004820152601260248201527134b73b30b634b21030b3b3b932b3b0ba37b960711b604482015260640160405180910390fd5b6001600160a01b039182166080521660a0526100e4565b80516001600160a01b03811681146100ac57600080fd5b919050565b600080604083850312156100c457600080fd5b6100cd83610095565b91506100db60208401610095565b90509250929050565b60805160a0516104a661011460003960008181604b0152818160cc015261016701526000608f01526104a66000f3fe608060405234801561001057600080fd5b50600436106100415760003560e01c8063245a7bfc1461004657806338d52e0f1461008a578063f55fa17f146100b1575b600080fd5b61006d7f000000000000000000000000000000000000000000000000000000000000000081565b6040516001600160a01b0390911681526020015b60405180910390f35b61006d7f000000000000000000000000000000000000000000000000000000000000000081565b6100b96100c7565b604051908152602001610081565b6000807f00000000000000000000000000000000000000000000000000000000000000006001600160a01b031663feaf968c6040518163ffffffff1660e01b815260040160a06040518083038186803b15801561012357600080fd5b505afa158015610137573d6000803e3d6000fd5b505050506040513d601f19601f8201168201806040525081019061015b919061028e565b5050509150506101fd817f00000000000000000000000000000000000000000000000000000000000000006001600160a01b031663313ce5676040518163ffffffff1660e01b815260040160206040518083038186803b1580156101be57600080fd5b505afa1580156101d2573d6000803e3d6000fd5b505050506040513d601f19601f820116820180604052508101906101f691906102de565b6008610203565b91505090565b8260ff80841690831610156102385761021c8284610317565b61022790600a610420565b610231908261042f565b9050610268565b8260ff168260ff161115610268576102508383610317565b61025b90600a610420565b6102659082610451565b90505b9392505050565b805169ffffffffffffffffffff8116811461028957600080fd5b919050565b600080600080600060a086880312156102a657600080fd5b6102af8661026f565b94506020860151935060408601519250606086015191506102d26080870161026f565b90509295509295909350565b6000602082840312156102f057600080fd5b815160ff8116811461026857600080fd5b634e487b7160e01b600052601160045260246000fd5b600060ff821660ff84168082101561033157610331610301565b90039392505050565b600181815b8085111561037557816000190482111561035b5761035b610301565b8085161561036857918102915b93841c939080029061033f565b509250929050565b60008261038c5750600161041a565b816103995750600061041a565b81600181146103af57600281146103b9576103d5565b600191505061041a565b60ff8411156103ca576103ca610301565b50506001821b61041a565b5060208310610133831016604e8410600b84101617156103f8575081810a61041a565b610402838361033a565b806000190482111561041657610416610301565b0290505b92915050565b600061026860ff84168361037d565b60008261044c57634e487b7160e01b600052601260045260246000fd5b500490565b600081600019048311821515161561046b5761046b610301565b50029056fea26469706673582212209d4e4b9c5ab169aafdfae2a5eac8117a059594794290847001b02fa645efde1364736f6c63430008090033",
  "devdoc": {
    "kind": "dev",
    "methods": {
      "viewPriceInUSD()": {
        "details": "returns the latest price of asset"
      }
    },
    "version": 1
  },
  "userdoc": {
    "kind": "user",
    "methods": {
      "aggregator()": {
        "notice": "chainlink aggregator with price in USD"
      },
      "asset()": {
        "notice": "the asset with the price oracle"
      }
    },
    "version": 1
  },
  "storageLayout": {
    "storage": [],
    "types": null
  }
}